:020000040800F2
:10000000381F00204501000805020008070200080B
:100010000B0200080F020008330200080000000075
:10002000000000000000000000000000370200088F
:1000300039020008000000003B0200083D020008F1
:100040005F0100085F0100085F0100085F01000810
:100050005F0100085F0100085F0100085F01000800
:100060005F0100085F0100085F0100085F010008F0
:100070005F0100085F0100085F0100085F010008E0
:100080005F0100085F0100085F0100085F010008D0
:100090005F0100085F0100085F010008130200080B
:1000A0005F0100085F0100085F0100085F010008B0
:1000B0005F0100085F0100085F0100085F010008A0
:1000C0005F0100085F0100085F0100085F01000890
:1000D0005F0100085F0100085F0100085F01000880
:1000E0005F0100085F0100085F0100085F01000870
:1000F0005F0100085F0100085F0100085F01000860
:100100005F0100085F0100085F0100085F0100084F
:100110005F0100085F0100085F0100085F0100083F
:100120005F0100085F0100085F0100085F0100082F
:10013000DFF80CD004F048FE0048004775010008C5
:10014000381F00200648804706480047FEE7FEE7C4
:10015000FEE7FEE7FEE7FEE7FEE7FEE7FEE7FEE777
:10016000431C000831010008014600E0491E002937
:10017000FCDC70479CB0602104A804F0CAFD1B4859
:100180000068039000F062F802F04BFE2CE0184883
:1001900000F091F84FF6FF7000210E2315A2CDE973
:1001A00000106421084600F0CAFE144814A1026839
:1001B00003A804F01BFEC822114603A801F08CFF1F
:1001C0000E484068401C0D4948609621642001F0AB
:1001D000AFFF0A494868062102F072FE002303AA15
:1001E0006421962000F04AFED1E70000A0520008EA
:1001F000A08601003132333300000000AC00002043
:10020000256C6400704700BFFEE700BFFEE700BF3B
:10021000FEE710B5402001F0C1F848B1202109489F
:1002200001F02BFA012008490870402001F0C7F8BE
:1002300010BD00BFFEE770477047704710B500F073
:100240004CF810BD000C01400000002030B52748DC
:100250000068274AB0FBF2F1B1F1807F01D30120A1
:100260001DE021F07F40401E4FF0E022506150170A
:100270000F22002807DA13071D0E1E4B00F00F0493
:10028000241F1D5503E013071C0E1B4B1C5400BFFD
:1002900000204FF0E022906107201061002008B19B
:1002A00000BFFEE74FF0E020006920F001004FF0B2
:1002B000E021086130BD01B51049009808604FF099
:1002C000E020006940F001004FF0E021086100BF2C
:1002D0000A4800680028FBD108BD0848006820B122
:1002E00006480068401E0549086070472400002049
:1002F000A086010018ED00E000E400E0040000200A
:100300001AB901238B40436102E001238B40036152
:10031000704730B5FE4CA04206D1FE4CA46944F0B3
:100320000404FC4DAC613CE0FB4CA04206D1F94C0E
:10033000A46944F00804F74DAC6132E0F74CA042E8
:1003400006D1F44CA46944F01004F24DAC6128E0ED
:10035000F34CA04206D1EF4CA46944F02004ED4DCB
:10036000AC611EE0EF4CA04206D1EA4CA46944F017
:100370004004E84DAC6114E0EB4CA04206D1E54CE2
:10038000A46944F08004E34DAC610AE0E74CA0426C
:1003900006D1E04CA46944F48074DE4DAC6100E009
:1003A00030BD02F00F028C06210E1F290ADC046802
:1003B0000F258D40AC430460046802FA01F52C431C
:1003C00004600EE03F290CDCA1F12004E1B2446896
:1003D0000F258D40AC434460446802FA01F52C437C
:1003E000446000BFDCE700B501220D21CA48FFF7D9
:1003F00087FF00BD00B500220D21C748FFF780FF31
:1004000000BD00B5002303220D21C348FFF781FF83
:10041000002303220121C348FFF77BFF00230B22A7
:100420001946BF48FFF775FF00230B220121BC4886
:10043000FFF76FFF00230B220421B948FFF769FF84
:1004400000230B220521B648FFF763FF00230B2290
:100450000721B348FFF75DFF00230B220821B048B6
:10046000FFF757FF00230B220921AD48FFF751FF8B
:1004700000230B220A21AA48FFF74BFF00230B227F
:100480001146A748FFF745FF00230B220E21A44881
:10049000FFF73FFF00230B220F21A148FFF739FF91
:1004A00000230B2207219F48FFF733FF00230B2275
:1004B00008219C48FFF72DFF00230B2209219948B2
:1004C000FFF727FF00230B220A219648FFF721FFA1
:1004D00000230B2211469348FFF71BFF00230B223A
:1004E0000C219048FFF715FF00230B220D218D48AA
:1004F000FFF70FFF00230B220E218A48FFF709FFA9
:1005000000230B220F218748FFF703FF0122072159
:100510008348FFF7F5FE012200218148FFF7F0FE36
:10052000012211467E48FFF7EBFE01220E217C4896
:10053000FFF7E6FE01220F217948FFF7E1FE0122D5
:1005400007217848FFF7DCFE012208217548FFF7F4
:10055000D7FE012209217348FFF7D2FE01220A21AA
:100560007048FFF7CDFE002201216E48FFF7C8FE5C
:10057000012204216A48FFF7C3FE012205216848D1
:10058000FFF7BEFEFFF72FFF00BD6248406940F451
:1005900080706049486100204FF020410860486049
:1005A000634908604FF02040006840F480504FF0ED
:1005B000204108600846006840F480400860084612
:1005C000006840F01000086008464068486008462F
:1005D000406840F0010048600846406840F47060A0
:1005E000486053480068C1F8040151480068C1F8E8
:1005F00004010846D0F8040140F44070C1F8040139
:100600000846006840F001000860704710B50221FC
:10061000444801F032F842F21070FFF74CFE02211C
:10062000404801F028F842F6E060FFF744FE10BDB4
:1006300010B50021002300222E204FF0C04420805E
:100640003C480188018802880388C812C0029C12B5
:1006500040EA441040EAE22010BD10B1012840D128
:100660001FE036210A0711806821324A11802A21B1
:100670004FF0C042118000212E4A118011800121CB
:1006800011803F2111802B214A0711800021294A26
:10069000118011801180EF2111800021264A1170F4
:1006A0001FE036210A0711804821224A11802A21A1
:1006B0004FF0C042118000211E4A1180118011802C
:1006C000EF2111802B214A0711800021194A118046
:1006D0001180012111803F2111800121164A1170E2
:1006E00000BF00BF704730B5134C247834BB2A24B8
:1006F0004FF0C0452C8004120E4D2C800412A0EB4C
:1007000004242C808418641EC4F30F242C8016E06B
:100710000008014000100240000C014000100140A0
:100720000014014000180140001C0140002001405D
:10073000040100A0000002600800002021E08418ED
:10074000641E85186D1E2D12A4EB0524AD4D2C8062
:100750002B2465072C800C12AA4D2C800C12A1EBC7
:1007600004242C80CC18641EC4F30F242C80CC18D5
:10077000641ECD186D1E2D12A4EB0524A14D2C80F6
:1007800030E02B2465072C8004129E4D2C8004122F
:10079000A0EB04242C808418641EC4F30F242C8046
:1007A0008418641E85186D1E2D12A4EB0524954D2A
:1007B0002C802A244FF0C0452C800C12914D2C80A7
:1007C0000C12A1EB04242C80CC18641EC4F30F245B
:1007D0002C80CC18641ECD186D1E2D12A4EB0524A0
:1007E000884D2C802C24E5062C8030BD70B5044645
:1007F0000D462B46224629462046FFF774FF2E2041
:100800004FF0C0410880FFF713FF0646304670BD29
:100810002C20C1060880704710B5CF204FF0C04192
:1008200008800020774908808120088030200880D7
:10083000ED204FF0C04108806420724908800320F9
:1008400008801220088081200880E8204FF0C041F5
:10085000088085206B490880102008807820088057
:10086000CB20410708803920664908802C20088069
:10087000002008803420088002200880F7204FF0F4
:10088000C041088020205F490880EA204FF0C04125
:10089000088000205B4908800880B1204FF0C041EB
:1008A00008800020574908801B200880B6200107D7
:1008B00008800A2053490880A2200880C020C10572
:1008C000088035204F490880C1204FF0C041088082
:1008D00011204C490880C5204FF0C04108804520B8
:1008E000484908800880C7204FF0C0410880A220F6
:1008F00044490880F2204FF0C0410880002041495F
:10090000088026200107088001203E490880E02059
:100910004FF0C04108800F203A4908802620088007
:10092000242008800B2008800E20088009200880E1
:1009300054200880A8200880462008800C200880C9
:1009400017200880092008800F20088007200880D1
:1009500000200880E1204FF0C04108800020294994
:100960000880192008801B2008800420088010209F
:100970000880072008802A20088047200880392026
:100980000880032008800620088008803020088026
:10099000382008800F200880362001070880682052
:1009A000184908802A204FF0C041088000201549CE
:1009B00008800880012008803F2008802B20410704
:1009C000088000200F49088008800880EF200880F8
:1009D0003A204FF0C041088055200A490880112074
:1009E0004FF0C04108804FF49660FFF764FC292067
:1009F0004FF0C04108800020FFF72FFE2C20C106D9
:100A0000088010BD0000026010B5FFF7FAFCFFF788
:100A1000BCFDFFF7FBFDFFF7FFFEFFF7F9FE00242B
:100A200004E04FF6FF70FB490880641CB4F5963F64
:100A3000F7D310BD002004E04FF6E071F54A1180B5
:100A4000401CB0F5963FF7D370472DE9F0470746B5
:100A5000884614461D46DDF820900020FFF7FDFD76
:100A60002B46224641463846FFF73DFE04FB05FA79
:100A7000002603E0E748A0F80090761C5645F9D31D
:100A8000BDE8F08770B504460D4601231A46294695
:100A90002046FFF728FEE0480088DE49088070BD48
:100AA00070B505460E46144601231A4631462846BF
:100AB000FFF719FED748048070BD2DE9F0470446C2
:100AC0000D4616461F460020FFF7C7FDB44206D16B
:100AD000BD4204D129462046FFF7D4FF4AE0301B2F
:100AE000791B002901DB0A4600E04A42002801DBAD
:100AF000034600E043429A421EDDBD4205DDAA46A0
:100B00003D465746A24634465646A94611E0A9EB53
:100B10000500311B4843791BB0FBF1F020441FFA5C
:100B200080F849464046FFF7ADFF09F101001FFA82
:100B300080F9B945EBDB1DE0B44205DDAA463D4630
:100B40005746A24634465646A04611E0A8EB04009C
:100B5000791B4843311BB0FBF1F028441FFA80F9A0
:100B600049464046FFF78EFF08F101001FFA80F862
:100B7000B045EBDBBDE8F0872DE9F04707460E46B0
:100B800090469946B7F59D7F01DCE42E01DDBDE876
:100B9000F0870C23062231463846FFF7A4FDA8F162
:100BA000200000F0FF0800243DE008EB48009B49CE
:100BB00001EB800010F804A0002530E00AF00100ED
:100BC00088B165B9C4F10C0083B2301981B2062234
:100BD0003846FFF788FD8F48A0F800901BE08D484D
:100BE000A0F8009017E0052D0AD1C4F10B0083B2E4
:100BF0003019401C81B206223846FFF774FD0AE026
:100C0000C5F106039AB2331999B27B195B1C98B2ED
:100C10000123FFF768FD4FEA6A0A681CC5B2062D7A
:100C2000CCDB601CC4B20C2CBFDB00BFAFE72DE9EE
:100C3000F0470646884617469946B6F59A7F02DC85
:100C4000B8F1EA0F01DDBDE8F08706230C2241462A
:100C50003046FFF748FDA7F12000C7B200244BE063
:100C60006F48007838B907EB47006C4901EB80000A
:100C700010F804A008E007EB4700684901EB80008A
:100C8000C4F10C0110F801A0002531E00AF00100C8
:100C900088B165B9C4F10C018AB2311988B2062352
:100CA0004146FFF720FD5B48A0F800901CE0594842
:100CB000A0F8009018E0052D0AD1C4F10B018AB20A
:100CC0003119491C88B206234146FFF70CFD0BE0A1
:100CD000C5F1060293B208EB0502521C91B232191B
:100CE00090B20122FFF7FFFC4FEA6A0A681CC5B206
:100CF000062DCBDB601CC4B20C2CB1DB00BFA2E71D
:100D00002DE9F04707460E4691469846B7F59C7F79
:100D100001DCE02E01DDBDE8F0871023082231461A
:100D20003846FFF7E0FC00243FE0A9F1200004EB87
:100D300000103C4911F800A0002532E00AF08000C4
:100D400088B165B9C4F1100083B2301981B20822AC
:100D50003846FFF7C8FC2F48A0F800801BE02D485C
:100D6000A0F8008017E0072D0AD1C4F10F0083B26C
:100D70003019401C81B208223846FFF7B4FC0AE063
:100D8000C5F108039AB2331999B27B195B1C98B26A
:100D90000123FFF7A8FC4FEA4A604FEA106A681C7B
:100DA000C5B2082DCADB601CC4B2102CBDDB00BF6D
:100DB000B1E72DE9F04706460F4691469846B6F54D
:100DC000987F01DCE82F01DDBDE8F08708231022C1
:100DD00039463046FFF787FC00244BE0A9F120009C
:100DE000102101EB0010001B0E4911F800A0002596
:100DF0003CE00AF08000D8B1B5B9C4F110018AB264
:100E0000311988B208233946FFF76DFC0148A0F874
:100E1000008025E0000002600A000020A4520008C3
:100E20000800002018570008FE48A0F8008017E0CE
:100E3000072D0AD1C4F10F018AB23119491C88B2B9
:100E400008233946FFF74FFC0AE0C5F1080293B2C8
:100E50007A19521C91B2321990B20122FFF743FC69
:100E60004FEA4A604FEA106A681CC5B2082DC0DB21
:100E7000601CC4B2102CB1DB00BFA5E72DE9F04126
:100E800005460E4614461F460020FFF7E6FB15E018
:100E9000B5F59C7F03DD002506F1100086B2E02E3B
:100EA00002DD00200646054622783B4631462846AC
:100EB000FFF726FF05F1080085B2641C20780028A2
:100EC000E6D1BDE8F0812DE9F05F05460E461746F4
:100ED0009846DDF828B0B5F59C7F01DCE02E01DDF9
:100EE000BDE8F09F1023082231462846FFF7FBFBA0
:100EF000002420E0A7F1200004EB0010CA4911F8FB
:100F000000904FF0000A11E009F0800018B1C548C8
:100F1000A0F8008002E0C348A0F800B04FEA4960A2
:100F20004FEA10690AF1010000F0FF0ABAF1080F58
:100F3000EADB601CC4B2102CDCDB00BFD0E72DE97B
:100F4000F84F0746894616469846DDE90AAB012464
:100F500000250020FFF781FB01E0681C85B2705D71
:100F60000028FAD113E0291BCDF800B0725C0821EB
:100F700001FB147188B253464946FFF7A4FF601C79
:100F800084B2444501DAAC4201DDBDE8F88F281B8C
:100F9000305C0028E7D100BFF7E72DE9F0410546B6
:100FA0000E4614461F460120FFF757FB15E0E82EBA
:100FB00003DD0026A5F1100085B2B5F5987F02DDAE
:100FC00000200546064622783B4631462846FFF774
:100FD000F0FE641C06F1080086B220780028E6D1F5
:100FE000BDE8F0812DE9F04706468846144699464B
:100FF000254600270020FFF730FB3CB94B46302246
:1010000041463046FFF7B8FDBDE8F08704E00A200E
:10101000B5FBF0F5781CC7B2002DF8D117E00A2017
:10102000B4FBF0F100FB114000F1300A39467A1EA2
:10103000D7B201EB41014900891F314488B24B46C8
:1010400052464146FFF798FD0A20B4FBF0F4002C0D
:10105000E5D100BFD8E72DE9F04105460E4614461C
:101060001F460020FFF7F9FA14E0B5F59D7F03DD78
:10107000002506F10C0086B2E42E02DD00200646B3
:10108000054622783B4631462846FFF775FDA81DE8
:1010900085B2641C20780028E7D1BDE8F0812DE9F5
:1010A000F04105460E4614461F460120FFF7D5FACB
:1010B00014E0EA2E03DD0026A5F10C0085B2B5F59B
:1010C0009A7F02DD00200546064622783B463146DF
:1010D0002846FFF7ACFDB01D86B2641C20780028BE
:1010E000E7D1BDE8F08110B5029C10BD10B5029C9F
:1010F00010BD704770472DE9F84304460D4616466B
:101100001F46DDF820800020FFF7A7FA16E0B4F5AF
:10111000987F03DD002405F1100085B2E02D01DD8C
:10112000002500243B46324629462046CDF8008063
:10113000FFF7D9FFB61C04F1100084B23078002804
:10114000E5D1BDE8F8832DE9F84304460D4616467F
:101150001F46DDF820800120FFF77FFA16E0E02D22
:1011600003DD0025A4F1100084B2B4F5987F01DD01
:10117000002500243B46324629462046CDF8008013
:10118000FFF7B4FFB61C05F1100085B230780028D7
:10119000E5D1BDE8F8832DE9F04104460D46164639
:1011A0001F460020FFF759FA14E0B4F5987F03DDDD
:1011B000002405F1100085B2E02D01DD002500249A
:1011C0003B46324629462046FFF793FFB61C04F102
:1011D000100084B230780028E7D1BDE8F0812DE915
:1011E000F04104460D4616461F460120FFF735FA2A
:1011F00014E0E02D03DD0025A4F1100084B2B4F565
:10120000987F01DD002500243B46324629462046D2
:10121000FFF770FFB61C05F1100085B2307800288A
:10122000E7D103E00000026018570008BDE8F08134
:101230002DE9F04707468846144699463E464546FE
:101240000120FFF70AFA30E020787D2810DAE82D37
:1012500003DD0025A6F1100086B222784B46294610
:101260003046FFF7A6FD641C05F1080085B21CE0BE
:101270002078A32809D14B46202229463046FFF783
:1012800098FDA41C06F1080086B2E02D03DD0025C0
:10129000A6F1100086B24B46224629463046FFF79B
:1012A00029FFA41C05F1100085B220780028CBD1BD
:1012B000BDE8F087002044490860091D0860091D49
:1012C0000860091D086041483F49143108607047B3
:1012D00000213D498279002A3AD00A461268036803
:1012E0009A430B461A600A1D126803689A430B1D45
:1012F0001A60027911440A6803681A430A60324A84
:101300000832126803689A432F4B08331A601A1D7B
:10131000126803689A432C4B0C331A604279102AE6
:101320000ED11A1F126803681A43274B08331A603C
:101330001A1D126803681A43234B0C331A600DE020
:101340002149427911440A6803681A430A6005E09A
:10135000027911440A6803689A430A6070470021C1
:10136000016001710C2141710021817170471649A2
:10137000103109680143144A103211607047014668
:101380000020114A143212680A400AB1012000E01C
:10139000002070470C491431086070470146002056
:1013A0000022094B1B6803EA0102074B14331B6838
:1013B0000B4013B10AB1012000E000207047024940
:1013C000143108607047000000040140FFFF0F0067
:1013D00010B50446EF48844208D10121042000F0F2
:1013E00077FB0021042000F073FB46E0EA488442CA
:1013F00008D10121082000F06BFB0021082000F03B
:1014000067FB3AE0E548844208D10121102000F052
:101410005FFB0021102000F05BFB2EE0E0488442DF
:1014200008D10121202000F053FB0021202000F0F2
:101430004FFB22E0DB48844208D10121402000F02C
:1014400047FB0021402000F043FB16E0D6488442D1
:1014500008D10121802000F03BFB0021802000F01A
:1014600037FB0AE0D148844207D10121801500F002
:101470002FFB0021A01500F02BFB10BD10B50121A2
:10148000084600F025FB0021012000F021FB10BDE3
:101490002DE9F041C24A904204D14422C44BC3F822
:1014A0009C20C4E000250026002200230024002701
:1014B00091F803C00CF00F0591F803C00CF0100C6C
:1014C000BCF1000F03D091F802C04CEA050591F879
:1014D00000C0BCF1000F4BD0DFF8D4C2DCF82CC048
:1014E0000CF1010CDFF8C882C8F82CC00468002297
:1014F0002BE04FF0010C0CFA02F3B1F800C00CEA3B
:1015000003069E4220D193004FF00F0C0CFA03F714
:10151000BC4305FA03FC4CEA040491F803C0BCF197
:10152000280F06D14FF0010C0CFA02FCC0F814C0D1
:101530000AE091F803C0BCF1480F05D14FF0010C4F
:101540000CFA02FCC0F810C0521C082AD1D3DFF8F4
:1015500050C260450BD1DFF85CC2DCF800C04FF030
:10156000000808EB4C0CDFF8488248F82C40046077
:10157000B1F800C0BCF1FF0F58DDDFF834C2DCF871
:1015800028C00CF1010CDFF82882C8F828C0446894
:1015900000222EE002F1080C4FF0010808FA0CF3CB
:1015A000B1F800C00CEA03069E4221D193004FF02F
:1015B0000F0C0CFA03F7BC4305FA03FC4CEA0404D5
:1015C00091F803C0BCF1280F05D102F1080C08FA0C
:1015D0000CF8C0F8148091F803C0BCF1480F07D193
:1015E00002F1080C4FF0010808FA0CF8C0F810805E
:1015F000521C082ACED3DFF8A8C1604515D1DFF808
:10160000B4C1DCF800C04FF0010808EB4C0CDFF867
:10161000A08148F82C40DFF89CC1DCF800C00CF138
:10162000010CDFF89081C8F800C0446000BFBDE83D
:10163000F0814FF6FF710180022181700421C17099
:1016400070470246002093680B400BB1012000E078
:10165000002070470146886880B27047024600202B
:10166000D3680B400BB1012000E000207047014619
:10167000C86880B2704701617047416170470AB124
:10168000016100E041617047C16070474FF48032F2
:101690000A43826181618261826982697047024680
:1016A0000020454B18684FF68073184040EA02103E
:1016B0000843414B186070474049C8617047F0B516
:1016C0000A46002300240021002500F00046B6F160
:1016D000004F02D1384EF16901E0374E7168C0F316
:1016E000034583B200F44016B6F5401F08D121F03F
:1016F0007061314E766826F070662F4F7E6012E082
:1017000000F48016B6F5801F06D1032606FA05F40C
:10171000A14341F0706106E0460D360103FA06F67A
:10172000B14341F0706122B1460D360103FA06F66D
:10173000314300F00046B6F1004F02D11E4EF16178
:1017400001E01D4E7160F0BD30B500228B071C0F0B
:101750000F2303FA04F2184B08338C1053F824308B
:101760009343154C08348D1044F8253023468C10D3
:1017700053F824308C07240F00FA04F423430E4C52
:1017800008348D1044F8253030BD0C49DC31086038
:101790007047000000080140000C014000100140AB
:1017A0000014014000180140001C014000200140CD
:1017B000D40000200C000020000001400000204266
:1017C000DF48006840F00100DD49086008464068D5
:1017D000DC490840DA49486008460068DA490840B0
:1017E000D74908600846006820F480200860084651
:1017F000406820F4FE0048604FF41F008860704786
:10180000CF49096821F48031CD4A11601146096839
:1018100021F480211160B0F5803F03D0B0F5802F16
:101820000ED106E0C649096841F48031C44A11600E
:1018300007E0C349096841F4A021C14A116000E0F2
:1018400000BF00BF704710B50146002200230020F2
:101850004A11012A02D1BA4C236806E0022A02D1B9
:10186000B74C236A01E0B64C636A01F01F02012401
:1018700094401C400CB1012000E0002010BD38B5A0
:10188000002000900024002500BF3120FFF7DBFF7F
:1018900005460098401C00900098B0F5A06F01D05C
:1018A000002DF2D03120FFF7CEFF08B1012400E077
:1018B0000024204638BD01460020A14A106820F0CF
:1018C000F80040EAC10010607047A0490860704706
:1018D000024600209A4B586820F47C1042EA01032B
:1018E0001843974B586070479849086670470146FF
:1018F0000020934A506820F003000843506070476E
:101900008F48406800F00C007047014600208C4A68
:10191000506820F0F00008435060704701460020F6
:10192000874A506820F4E0600843506070470146E1
:101930000020834A506820F4605040EAC1005060A3
:10194000704729B17E4A527A02437D4B5A7204E0B5
:101950007B4A527A82437A4B5A7270477B49D8311C
:101960000860704701460020754A506820F44040E6
:101970000843506070470021714A20321170704A4C
:1019800082F82010012802D004280AD104E00121A5
:101990006B4A2032117005E00521694A203211702E
:1019A00000E000BF00BF70476949086070476449A4
:1019B000096A0143624A1162704765494439086007
:1019C000704730B500210022002400235C4D6D6873
:1019D00005F00C0121B1042905D0082923D105E027
:1019E0005C4D056022E05B4D05601FE0544D6D6865
:1019F00005F47012524D6D6805F48034022505EB34
:101A000092421CB9544D554305600BE04C4D6D6836
:101A100005F400351DB1504D5543056002E04D4DB4
:101A20005543056002E04B4D056000BF00BF444DCB
:101A30006D6805F0F0010909484D6B5C0568DD40F3
:101A400045603F4D6D6805F4E061090A434D6B5CEC
:101A50004568DD4085603A4D6D6805F46051C90AFE
:101A60003E4D6B5C4568DD40C560354D6D6805F4E5
:101A70004041890B3A4D6B5CC568B5FBF3F50561D8
:101A800030BD29B12E4A526902432D4B5A6104E000
:101A90002B4A526982432A4B5A61704729B1284A1E
:101AA00092690243264B9A6104E0254A9269824377
:101AB000234B9A61704729B1214AD2690243204BD6
:101AC000DA6104E01E4AD26982431D4BDA61704735
:101AD00029B11B4AD2680243194BDA6004E0184A64
:101AE000D2688243164BDA60704729B1144A1269F2
:101AF0000243134B1A6104E0114A12698243104BEE
:101B00001A61704712494039086070470F49C8642C
:101B100070470B49C87170470948406A40F08070AF
:101B200007494862704701460020054A92680A400A
:101B30000AB1012000E00020704701498872704717
:101B4000001002400000FFF8FFFFF6FE00004242D6
:101B50008004424200127A0000093D00100000207B
:101B6000200000200CB50020019000906C48006817
:101B700040F480306A49086000BF6948006800F49A
:101B8000003000900198401C0190009818B901980D
:101B9000B0F5A06FF1D16248006800F4003010B1D8
:101BA0000120009001E0002000900098012843D11E
:101BB0005C48006840F010005A4908600846006818
:101BC00020F0030008600846006840F0020008604A
:101BD0005348406852494860084640684860084693
:101BE000406840F4806048600846406820F47C10FB
:101BF00048600846406840F4E810486008460068BD
:101C000040F08070086000BF4548006800F0007038
:101C10000028F9D04248406820F00300404948605D
:101C20000846406840F00200486000BF3C484068F9
:101C300000F00C000828F9D10CBD10B5FFF792FF99
:101C400010BD10B53648006840F001003449086006
:101C500008464068344908403149486008460068F1
:101C6000324908402E4908600846006820F4802068
:101C700008600846406820F4FE0048604FF41F00EA
:101C80008860FFF7DAFF4FF000602949086010BD57
:101C900010B5002100200022214B5B6803F00C01ED
:101CA00021B1042906D0082928D107E0214B224C74
:101CB000236027E01F4B204C236023E0184B5B6818
:101CC00003F47010164B5B6803F48032022303EBBD
:101CD000904022B9194B4343174C23600DE0104B41
:101CE0005B6803F4003323B1144B4343124C23606D
:101CF00003E0104B4343104C236003E00D4B0E4CAC
:101D0000236000BF00BF064B5B68C3F303130C4C9A
:101D1000E15C094B1B68CB40074C236010BD000001
:101D200000100240002002400000FFF8FFFFF6FE16
:101D300008ED00E000127A002400002000093D00B8
:101D400028000020B0F90020B1F900309A4201DAF1
:101D50000A880280B0F90220B1F902309A4201DA11
:101D60004A884280B0F90420B1F904309A4201DD7A
:101D70008A888280B0F90620B1F906309A4201DDE6
:101D8000CA88C280704710B50346B1F90000B2F9A5
:101D90000040A04202DDB1F9000001E0B2F900000C
:101DA0001880B1F90200B2F90240A04202DDB1F997
:101DB000020001E0B2F902005880B1F90400B2F962
:101DC0000440A04202DDB2F9040001E0B1F90400D0
:101DD0009880B1F90600B2F90640A04202DDB2F9DE
:101DE000060001E0B1F90600D880B3F90400B3F9A8
:101DF0000040A04201DA002010BDB3F90600B3F99B
:101E00000240A04201DA0020F6E70120F4E770B5B5
:101E100003460D4602E003F8015B521E1AB103F0BF
:101E200003000028F7D19108A9B102F0030205EBE5
:101E3000054606EB0624184604E010C010C010C08A
:101E400010C0091F0429F8DA01E010C0491E00295A
:101E5000FBD1034600BF02E003F8015B521E002ADB
:101E6000FAD170BD70B505460C46284600F019F849
:101E7000C6B2234600223146284600F036F870BD2F
:101E800010B502461068002809DA2D230C68601C82
:101E900008602370106840421060012010BD0020CF
:101EA000FCE701460120002901DD0B4600E04B4222
:101EB0001A4600E0401C2C4B53F82030934201D8C6
:101EC0000928F7DB002900DA401C704710B500280C
:101ED00002DA2D22404200E02B220C68631C0B60CA
:101EE000227000230C68237010BD2DE9FF410D46C0
:101EF00016461C4621466846FFF7C2FF281AC5B29F
:101F00000EB1681EC5B2184850F8250000998842E5
:101F100004D8154850F82500401E00901CE02846C3
:101F2000691ECDB2B04205D1104801782268501C1C
:101F3000206011700C4850F82580009890FBF8F054
:101F4000C7B2009807FB1800009007F13000C1B23B
:101F50002268501C20601170002DE0D10020216803
:101F60000870BDE8FF810000185D000850000020E7
:101F700070B50446204600F04BFC05463DB12846AE
:101F800000F051FC064622460021FFF740FF28469C
:101F900070BD00002DE9FC4704460CB9BDE8FC8784
:101FA00000F0B2FC07464B48B0F9228000F0D8FCA4
:101FB00006464848808C801B00B24649888477E0FA
:101FC00047F6FF71204600F02BFD82465146204621
:101FD00000F046FD05463F4890F82C0000F0030055
:101FE000012807D0022807D1284605EBD0714FEA17
:101FF000610904E0A94602E04FF0000900BF00BFFC
:102000003448408CA0EB090000B232494884ADF856
:102010000000BDF800002844401E00B2ADF80400E6
:102020000846808CADF80200BDF802003844401E1E
:1020300000B2ADF806006A465146204600F030FD79
:10204000BDF80200234988845146204600F0F2F989
:10205000044420780A2802D020780D281ED11D487B
:1020600090F82C0000F00300012802D0022805D1CE
:1020700000BF0FFA88F01749488404E01548008C27
:102080001449488400BF00BF20780A280CD11148A9
:10209000808C384400B20F49888405E0BDF8000008
:1020A000284400B20B494884207800B903E0641C3E
:1020B0002078002884D100BF0648808C304400B2CC
:1020C000044988840846B0F92C0020F00300888574
:1020D00000BF63E7C418002070B506460C461546DD
:1020E00020B20449488428B288843046FFF752FF62
:1020F00070BD0000C4180020014608B2134A908445
:1021000000207047014608B2104A508400207047F2
:1021100070B504462046FFF7EFFF0546284670BD20
:1021200070B504462046FFF7EDFF0546284670BD12
:1021300070B506460C463046FFF7E4FF05462046DC
:10214000FFF7DAFF0543284670BD0000C4180020E1
:1021500010B570B371B36AB3B1F90030B2F9004091
:10216000A34202DDB2F9003001E0B1F90030038092
:10217000B1F90230B2F90240A34202DDB2F90230F5
:1021800001E0B1F902304380B1F90430B2F9044002
:10219000A34202DDB1F9043001E0B2F904308380DA
:1021A000B1F90630B2F90640A34204DDB1F90630B8
:1021B00003E00CE003E0B2F90630C38010BD09B1C2
:1021C0000B4600E013461C6804605B68436000BF78
:1021D000F4E778B103880B441BB2038083880B4477
:1021E0001BB28380438813441BB24380C3881344CB
:1021F0001BB2C380704700002049086800211F4AB5
:10220000116070471D49096809B91C490860704789
:1022100000B500BFFFF7F0FF0028FBD100BD184A52
:10222000106051600122174B1A60704770B500248E
:102230001448006898B113480068401E11490860AE
:102240000F4805684168284602F000FD0C484068C8
:10225000012802D12846FFF7D5FF012400BF204600
:1022600070BD70B504460D462946204602F0EEFCCE
:1022700018B929462046FFF7D2FF70BD4400002060
:102280003C000020380000200749087D70470649BF
:10229000487D70470146044A107D1175704701461C
:1022A000014A507D51757047C41800200246B2F9AA
:1022B0000200B1F90630984213DCB1F90200B2F91C
:1022C000063098420DDCB2F90000B1F904309842B2
:1022D00007DCB1F90000B2F90430984201DC0120BA
:1022E00070470020FCE7000010B504465022064964
:1022F000204602F0E7FC10BD10B5044650222146EE
:10230000014802F0DFFC10BDC418002010B50446DF
:10231000204601F025F810BD10B50446204601F016
:102320002EF810BD10B56FF07F40FFF7EFFF0020D3
:10233000FFF7F2FF0120FFF7ADFF002000F02CF8BF
:10234000002000F033F8002000F00EF8054800F0FF
:1023500013F8002000F018F810BD10B5FFF7E2FFE9
:1023600010BD0000EC69000870B50446204600F07E
:1023700011FE0546284670BD0146024A906901B12A
:1023800091617047C41800200146024A907D917502
:1023900070470000C41800200146034AB2F92C001F
:1023A0000AB2014B9A857047C41800200146034ABF
:1023B000B2F92A000AB2014B5A857047C4180020AE
:1023C00070B504463148C0694168204688470546D3
:1023D000284670BD70B504462C48C0690168204687
:1023E00088470546284670BD70B504460D46274807
:1023F000C0692946C268204690470646304670BDEF
:1024000010B504462148C06981682046884710BD40
:1024100070B5044625681D48C0690168284688478C
:1024200006461A48C0694168284688470544256021
:10243000304670BD2DE9F04105460E46002707E005
:102440001248C06941682846884704462544274405
:10245000301EA6F10106F3D13846BDE8F0812DE922
:10246000F04106460F464FF00008002508E07019BD
:10247000064AD269516888470446254408F1010894
:10248000AF42F4DC4046BDE8F0810000C4180020F3
:10249000014608787047014600BF01207047014699
:1024A00000BF0120704702461170012070470248AA
:1024B0000249C86170470000405D0008C418002050
:1024C0000146C81C20F0030000B27047014601EB32
:1024D0004100FB4A02EB4000B0F90200704770B5C2
:1024E00000EB4001F64B03EB4101498801B970BD97
:1024F00000EB4001F24B03EB4101B1F90220F1493D
:10250000C989114409B2EF4BD98119468989891AC1
:1025100009B29981002100EB4003E94C04EB43032D
:10252000598000EB4004E64D05EB4404217900EBB3
:10253000400405EB4404637903EB430405EB4404D6
:10254000217129B101EB4105DD4E06EB45056B71AB
:10255000DC494968491CDB4B596019460968491E2A
:10256000196000BFC3E7012109E001EB4100D44A33
:1025700002EB4000408808B908B27047491C9E2908
:10258000F3DB0020F9E770B50246002116E001EB0D
:102590004100CB4D35F9100001EB4105C84E06EB6B
:1025A0004505B5F90250284403EB430536F91550AB
:1025B0002C1A944201DB08B270BD194601EB4100B0
:1025C000BF4C04EB40000379002BE0D101EB41004C
:1025D00034F9100001EB4104B94D05EB4404B4F9A2
:1025E0000240204441F28834201A904201DB08B2B4
:1025F000E2E74FF0FF30DFE72DE9F04706464FF006
:10260000FF39002449E004EB4400AD4931F81000E3
:1026100004EB4401AA4A02EB41014988084405EB56
:10262000450132F81110081A0FFA80FAB24533DA70
:1026300004EB4400114631F8100004EB440102EBB6
:1026400041014988084405EB450132F81110081A88
:1026500007B207B305EB4500114631F910009A495E
:1026600000EB010805EB4501134603EB4101B1F90D
:102670000220A8EB0700414602F024FB05EB4500D1
:102680008F4931F81000C01B00B205EB45018C4AA0
:1026900022F8110000BF00BF2C4604EB440088491B
:1026A00001EB40000579002DADD104EB440031F978
:1026B000100004EB4401824A02EB4101B1F902101F
:1026C000084441F28831081AB04200DBA1460FFAF3
:1026D00089F0BDE8F0879D207A494860886041F222
:1026E0008830C881088200200860888104207449ED
:1026F00048800020088008710120744908707047E4
:1027000000B57248007808B9FFF7E5FF00BD2DE974
:10271000F0410646FFF7F4FF3046FFF7D1FE0646CC
:102720006848B0F90E00B04202DA0020BDE8F0813E
:10273000FFF719FF051E00D1F8E73046FFF723FF2A
:102740000446601C18B93046FFF756FF0446601C6B
:1027500008B90020EAE704EB4402594B33F8122091
:1027600004EB4403564F07EB43035B881A4411B252
:1027700004EB44023B4603EB4202107905EB4502B1
:1027800003EB4202568005EB450223F8121005EBDD
:10279000450203EB42021071002804DD00EB400308
:1027A00007EB43035D7105EB4503454F07EB43031F
:1027B0005C7104EB440307EB43031D71414800685F
:1027C000401C4049086008464068401E4860084672
:1027D00080684968884203DD3A4840683949886022
:1027E00038488089304400B2364988810846C0891B
:1027F000801B00B2C8810846B0F91000B1F90E1074
:10280000884203DD2F48C0892E49088228468DE77B
:1028100070B504460CB9002070BD2046FFF777FF65
:1028200005462846F8E7014609B90020704701EB44
:102830004100234A32F91000234A1044F6E710B54C
:10284000FFF75EFF1F48B0F90E0010BD2DE9F04103
:102850000026FFF755FF002515E005EB4500184958
:1028600031F8100005EB4501154A02EB410149889A
:10287000084407EB470132F81110081A04B2B442B9
:1028800000DD26463D4605EB45000D4901EB4000C5
:102890000779002FE1D105EB450031F8100005EB79
:1028A0004501074A02EB41014988084441F2883159
:1028B000081A04B2B44200DD26463046BDE8F08175
:1028C000FC140020B0180020740100204C000020EF
:1028D00010B504460CB9002010BD2046FFF7F6FDE8
:1028E000FAE710B5044604B910BD2046FFF7F7FD1E
:1028F00000BFF9E710B50446B4F90000FFF7F1FF97
:102900000020208010BD00002B498969497D2A4A9A
:102910009269D27D01FB02F0704700B5FFF7F4FF2A
:102920002549898C084400B2234988840846008CD4
:10293000488400BD10B504460A2C02D1FFF7EDFF14
:102940000DE00D2C0BD01C4880690168204688479B
:102950001A48006818B1204618490968884710BD10
:102960000020154991F82C1001F00C01042904D025
:1029700008290ED00C2913D104E00F498969097D7B
:10298000481E0DE00C4A9269117D01EBD172501086
:1029900006E0094A9269117D01EBD172501000BF27
:1029A00000BF704770B504460348806941682046FF
:1029B00088470546284670BDC41800205C000020EA
:1029C000F7B50C4615466948006930B16749086992
:1029D0002946FFF76BFC00B9FEBD644880690069B9
:1029E00038B1624880690069214682680098904742
:1029F00014E00FE06846FFF70BFD06465B48806970
:102A00000168304688475A48006818B1304658492E
:102A100009688847601E041EECDA00BF00BFDBE7D0
:102A200073B50D4600240098C0B150488069006914
:102A300038B14E488069006929464268009890473D
:102A40007CBD08E06846FFF7E3FC06460EB10A2E9F
:102A500000D102E0641CAC42F4DB00BF2046EFE78B
:102A600073B50C4600250098C0B1404880690069E4
:102A700038B13E4880690069214602680098904755
:102A80007CBD07E06846FFF7C3FC06463046FFF70B
:102A900089FF0544601E041EF4DA00BF2846EFE7F4
:102AA0007CB505460E4614463248006878B10020D1
:102AB00001F079FD002858D000BF6A46314628460B
:102AC000FFF77EFF01F04BFD0028F6D14DE02068B6
:102AD000009060680190BDF800002449B1F84010F2
:102AE000084400B2ADF80000BDF802001F49B1F87B
:102AF0004410084400B2ADF80200BDF804001B49C0
:102B0000B1F84010084400B2ADF80400BDF806006A
:102B10001649B1F84410084400B2ADF80600684602
:102B200001F041FD80B100BFBDF800000F494884AD
:102B3000BDF8020088846A4631462846FFF740FF08
:102B400001F00DFD0028EFD10848408C0749B1F88D
:102B50004010401A00B2054948840846808CB1F8FC
:102B60004410401A00B2014988847CBDC41800207A
:102B70005C000020600000202DE9F04F8BB005467E
:102B80007248B0F922000A907048B0F924A0806918
:102B90008469B4F80C80A84509DCE089A84206DB0A
:102BA000D4F80090A5EB08064FF0FF371DE0A068B1
:102BB000D4F80490A8B1B0F80080A8450DDC418895
:102BC000A9420ADB0288AA1A95B2416801EB850185
:102BD000B1F90060B1F9027006E04FF0FF363746F8
:102BE00002E04FF0FF36374600BF701C002877D058
:102BF00056488069007DA17C48430990207C08905C
:102C000052488069007D07905048B0F92AB0584674
:102C100000F0C0F9C0B206904C4A099806FB00903B
:102C2000A17C0123CDE90231CDE90402104680697F
:102C3000C07D11468969897DCDE900105146DDE9E5
:102C400007320A9800F046FA781CD8B14BF002001F
:102C500000F0A0F93D4A099807FB0090A17C0123F0
:102C6000CDE90231CDE9040210468069C07D1146EC
:102C70008969897DCDE900105146DDE907320A985E
:102C800000F028FA31488069407D30498969097D22
:102C9000884221DDBBF1020F1ED08BF0040000F052
:102CA00079F92A488069007DDFF8A0C0DCF818C0F7
:102CB0009CF815C000FB0CA124488069407D00EB06
:102CC0000A032248806990F816E0DDF820C00A98CF
:102CD0000CFB0E0200F0C9F9069800F05BF900BF8A
:102CE0001A48B0F92200617C184A9269927D01FB72
:102CF000020000B2154948840BB0BDE8F08F0146D0
:102D000012488069826900BF507C104B9B699B7D93
:102D10005843704700BF02220A80704730B504460E
:102D2000A26995898D4204DCD089884201DB0120AB
:102D300030BD93683BB11888884204DC58888842CB
:102D400001DB0120F4E700BF0020F1E7C4180020F8
:102D500010B504463B482061201D00F033FB3A4883
:102D6000A0643A48A061374820610120207501F035
:102D700051FFA087032084F84C006FF0704020635F
:102D80006063001100F0ECFA002000F0F8FA30481F
:102D9000E06110BD2DE9FC4104460D4616461F4674
:102DA000042000F0F7F880462648001F006C044419
:102DB0002448001F406C05442248001F006C064454
:102DC0002048001F406C074420B2ADF8000030B22C
:102DD000ADF8040028B2ADF8020038B2ADF8060034
:102DE000684601F0E0FB50B100BF3B463246294641
:102DF000204600F03AF901F0B2FB0028F5D1404638
:102E000000F0C8F8BDE8FC8110B500210846FFF7C6
:102E10008FF940F6FF731A4659420846FFF7BAFF8A
:102E200010BD10B52E200B49087000F06EFE05484D
:102E3000001FFFF78DFF00F069FA044601F00BFE5A
:102E4000204610BDC8180020505D0008EC6900083D
:102E5000405D0008500000207FB504460D46164630
:102E600001A800906B46324629462046FFF73DF800
:102E700001A8FFF78FF87FBD7FB505460C461646C3
:102E800001A8009069462846FFF720F80546601E15
:102E9000C0B2044601466B4632462846FFF725F885
:102EA00001A8FFF777F87FBD1FB5044601A8009081
:102EB00069462046FEF7D6FF01A8FFF76BF81FBD55
:102EC0007FB505460C4601A80090002D06DA69463C
:102ED0002846FEF7FBFF0546601EC4B22846FEF7F3
:102EE000E0FFC6B205E02020009908700098401C61
:102EF00000903046711CCEB2A042F4DB69462846F1
:102F0000FEF7B0FF01A8FFF745F87FBD70B5044696
:102F10000D46002229462046FFF7AEFF70BD70B572
:102F200004460D46002229462046FFF795FF70BD56
:102F30002DE9FF4105460E4617461C4601A80090A4
:102F40006B46002221462846FEF7CFFF3A4631461F
:102F500001A8FFF7C1F8BDE8FF8100000146F8486D
:102F6000007B00F0040008B1481E70470846FCE7EB
:102F700010B504460120FFF7F1FFF14921F8104098
:102F800010BD10B504460020FFF7E8FFEC4921F81A
:102F9000104010BD10B50146E94A107B127B4A4033
:102FA00002F004023AB1E64B1A885B88E44C2380B5
:102FB00023465A8000BFE24B197310BD70B504461A
:102FC0000D46DF48B0F90600A84200DD70BDDC48C0
:102FD000B0F90A00A84200DAF8E7D948B0F90400CD
:102FE000A04200DDF2E7D648B0F90800A04200DABE
:102FF000ECE7D348007B00F0010020B129462046D1
:1030000000F0BAFC05E0CE4842882946204600F090
:1030100037FA00BFDAE770B504460D461646C848D1
:10302000B0F90600A84200DD70BDC548B0F90A003D
:10303000A84200DAF8E7C248B0F90400A04202DD75
:10304000BF48B0F90440BE48B0F90800B04202DA07
:10305000BB48B0F90860A64200DAE5E732462946E7
:10306000204600F099FC00BFDEE72DE9F041044660
:103070000D4616461F46B248B0F90400A04202DDD4
:10308000AF48B0F90440AE48B0F90800B04202DAE7
:10309000AB48B0F90860A64201DABDE8F081A84863
:1030A000B0F90600A84202DDA548B0F90650A448D0
:1030B000B0F90A00B84202DAA148B0F90A70AF428A
:1030C00000DAEAE73B4632462946204600F09EFCFD
:1030D00000BFE2E72DE9FF4F8BB0054690461F4643
:1030E000DDF860A0DDF868901C9E00200A909548ED
:1030F000006898B11B991D98CDE90291CDE9046053
:103100001998CDE900A08F4800683B464246046804
:1031100028460C99A0470FB0BDE8F08F0C983844B2
:10312000401E089005EB0800401E099019984AEAD5
:103130000000012878D18248B0F906100C980C1ACA
:10314000002C0ADD3F1B002F00DCE4E77C48B0F9CF
:1031500006000C901B9804FB00667948B0F90A1031
:103160000898441A002C03DD3F1B002F00DCD2E737
:103170007348B0F908100998441A002C01DDA8EB37
:10318000040800246E48B0F90400A84239DD6C48F8
:10319000B0F90400441BA8EB0408B9F1040F1ED0D9
:1031A00006DCB9F1010F0AD0B9F1020F28D10EE007
:1031B000B9F1080F1BD0B9F1100F21D11BE006EBBC
:1031C000E406E01005EBC00504F0070418E006EB88
:1031D000A406A01005EB800504F0030410E006EB44
:1031E0006406601005EB400504F0010408E0264485
:1031F0002544002404E006EB44062544002400BFD7
:1032000000BFB8F1000F00DC85E71B991D983B4615
:103210004246CDE90091CDE90264049028460C991C
:1032200000F005FC6AE0FFE7C9F1080005900C9C7E
:10323000002006905EE019982044401E049040480B
:10324000B0F90610049881424DDC3D48B0F90A00FF
:10325000A04248DB002003900196079502903EE0D3
:10326000039838B9019800780A900198401C0190A1
:103270000820039005990A9840FA01FB0A9800FA81
:1032800009F0C0B20A900398A0EB09000390BBF1CB
:10329000000F04D12A48007B00F00200C8B928487A
:1032A000408800901D9828B11D9830F81B002449D3
:1032B000488002E02248A0F802B007985044421E1D
:1032C0002146049B0798FFF7D0FE1D4900984880CF
:1032D00000BF0298401C0290079850440790029843
:1032E0004045BDDB00BF0698401C06901998044479
:1032F0001B9806440698B8429DDB00BF00BF0AE752
:1033000010B50F48001D00F05DF810BD10B5002489
:10331000FFF7F6FF00F0E2FB044300F092F8042010
:10332000FFF738FE40F6FF731A4600210846FFF704
:103330009CFE0020FFF72EFE00F0CEFB204610BDC5
:10334000C41800206000002010B50446204600F09C
:1033500027F810BD10B50446204600F029F810BD2E
:1033600070B504460D48406BA04207D00B4844633B
:103370002046FFF7E9FF0546FFF703FE70BD70B575
:1033800004460648006BA04207D004480463204668
:10339000FFF7DAFF0546FFF7EBFD70BDC41800200C
:1033A00070B50446204601F07DFC0546284670BDF8
:1033B00010B50446204600F047F810BD10B501F0E6
:1033C0007EFC10BD00210180418040F23F118180D0
:1033D000EF21C180704700001CB504466846FFF726
:1033E000F1FF6A4621460248FEF7CDFC1CBD0000F5
:1033F000C81800202DE9F041044614B90020BDE8AA
:10340000F081A06808B90020F9E72068B0F5807F56
:1034100001DD0020F3E72668A768002507E057F8DC
:103420002500FFF791FF074921F815006D1CB542F3
:10343000F5DB0448E3E710B504462046FFF7DAFF62
:1034400010BD70471419002030B5014601F01F036C
:10345000C1F34512C1F3C424C4EB04201F25B0FB03
:10346000F5F4C2EB02203F25B0FBF5F2C3EB0320DD
:103470001F25B0FBF5F304EB022000EB034030BD49
:1034800070B504460D461646B2B2A9B2A0B2FDF719
:1034900007FB70BD70B504460D46A9B2A0B2FDF79A
:1034A000A5F90646304670BD2DE9F84F0646894617
:1034B00015461C46DDE90A78B8F800000090B8F817
:1034C00002A02644FD48007B00F0030020B1012843
:1034D00031D002284ED118E000BF29788023234143
:1034E000194009B1514600E000990A463046761C61
:1034F0004946FFF7C5FF601C0446082801D1002497
:103500006D1C781E071EE8D134E000BF28788021AA
:103510002141084020B1524649463046FFF7B0FFEE
:10352000761C601C0446082801D100246D1C781EFE
:10353000071EEBD11EE000BF287880212141084002
:1035400068B149463046FFF7A5FF83464FF6FF7046
:10355000A0EB0B0249463046FFF792FF00BF761CF6
:10356000601C0446082801D100246D1C781E071E2B
:10357000E2D100BF00BFBDE8F88F2DE9FF4F83B057
:10358000054616469A46DDE9107896F800905446AE
:103590005544CA48007B00F0030010B1022848D10E
:1035A00048E0B8F1000F24D000BFC4F103004FEA97
:1035B000400BCBF10601C020084100EA090040FAA7
:1035C0000BF00290029838F81000019028466D1C0C
:1035D000019A0499FFF754FF601C0446042804D1A3
:1035E0000024701C064690F80090781E071EDCD15F
:1035F0001FE000BFC4F103004FEA400BCBF106010E
:10360000C020084100EA090040FA0BF00290284669
:103610006D1C029A0499FFF733FF601C04460428CE
:1036200004D10024701C064690F80090781E071EF6
:10363000E0D14FE0B8F1000F27D000BFC4F1030084
:103640004FEA400BCBF10601C020084100EA090017
:1036500040FA0BF00290029848B1029838F8100036
:1036600001902846019A0499FFF70AFF00BF6D1CDC
:10367000601C0446042804D10024701C064690F8FF
:103680000090781E071ED9D123E000BFC4F10300CB
:10369000400002900298C0F10601C020084100EAF3
:1036A0000900029940FA01FBBBF1000F04D05A4611
:1036B00028460499FFF7E4FE6D1C601C04460428AC
:1036C00004D10024701C064690F80090781E071E56
:1036D000DCD100BF00BF07B0BDE8F08F2DE9FF4F80
:1036E00083B0054616469A46DDE9107896F80090B4
:1036F000544655447148007B00F0030010B1022885
:1037000048D148E0B8F1000F24D000BFC4F1010057
:103710004FEA800BCBF10401F020084100EA0900D8
:1037200040FA0BF00290029838F8100001902846F9
:103730006D1C019A0499FFF7A3FE601C0446022841
:1037400004D10024701C064690F80090781E071ED5
:10375000DCD11FE000BFC4F101004FEA800BCBF1C8
:103760000401F020084100EA090040FA0BF0029041
:1037700028466D1C029A0499FFF782FE601C0446DD
:10378000022804D10024701C064690F80090781E90
:10379000071EE0D14FE0B8F1000F27D000BFC4F101
:1037A00001004FEA800BCBF10401F020084100EA50
:1037B000090040FA0BF00290029848B1029838F8DC
:1037C000100001902846019A0499FFF759FE00BFA6
:1037D0006D1C601C0446022804D10024701C06469F
:1037E00090F80090781E071ED9D123E000BFC4F1E5
:1037F0000100800002900298C0F10401F02008410D
:1038000000EA0900029940FA01FBBBF1000F04D065
:103810005A4628460499FFF733FE6D1C601C044687
:10382000022804D10024701C064690F80090781EEF
:10383000071EDCD100BF00BF07B0BDE8F08F2DE947
:10384000F0470746894614461D46DDF820801B4890
:10385000007B00F0030010B102283FD11CE0B8F15A
:10386000000F0DD009E0267838F816204946384672
:10387000FFF706FE6D1E7F1C641C002DF3DC0AE0C2
:1038800007E0227849463846FFF7FAFD6D1E7F1C97
:10389000641C002DF5DC21E0B8F1000F10D00AE027
:1038A00026782EB138F8162049463846FFF7E8FD4D
:1038B0006D1E7F1C641C002DF2DC0EE0C41800207D
:1038C00009E0267826B1324649463846FFF7D8FD4A
:1038D0006D1E7F1C641C002DF3DC00BF00BFBDE823
:1038E000F0872DE9F0470746894614461D46DDF866
:1038F00020807E48007B00F00200E0B9B8F1000FA4
:103900000DD009E0268838F8162049463846FFF7DA
:10391000B7FD6D1E7F1CA41C002DF3DC2AE007E020
:10392000228849463846FFF7ABFD6D1E7F1CA41C5C
:10393000002DF5DC1EE0B8F1000F0ED00AE026885D
:103940002EB138F8162049463846FFF799FD6D1E0E
:103950007F1CA41C002DF2DC0CE009E0268826B1B7
:10396000324649463846FFF78BFD6D1E7F1CA41C6E
:10397000002DF3DCBDE8F08770B504460D462946FE
:103980002046FFF787FD86B2C6F58030421E2946E5
:103990002046FFF775FD70BD70B504460E4615460E
:1039A0005248007B00F0010040B104E0314620465F
:1039B000FFF7E2FF641CAC42F8DD09E006E04B488B
:1039C000428831462046FFF75BFD641CAC42F6DDC1
:1039D00070BD70B506460C4615464448007B00F0A5
:1039E000010040B104E021463046FFF7C5FF641CEA
:1039F000AC42F8DD09E006E03C484288214630460A
:103A0000FFF73EFD641CAC42F6DD70BD2DE9F041D0
:103A100006460C4617461D4605E03A462146304606
:103A2000FFF7BAFF641CAC42F7DDBDE8F0812DE979
:103A3000FC5F82460D4616469846DDF830B0DDF84C
:103A40003890109F002440E0BBF1040F20D006DC2A
:103A5000BBF1010F0AD0BBF1020F32D10FE0BBF175
:103A6000080F1ED0BBF1100F2BD122E06119CDE958
:103A700000674A4650460F9BFFF716FD21E061198B
:103A8000CDE900674A4650460F9BFFF776FD18E0E8
:103A90006119CDE900674A4650460F9BFFF71EFEAD
:103AA0000FE0611933464A4650460097FFF7C7FEBC
:103AB00007E0611933464A4650460097FFF711FF69
:103AC00000BF00BF0D988144641C4445BCDBBDE8C9
:103AD000FC9F00BF00BF70477047704710B5FCF7F0
:103AE00093FF002010BD00BF00BF7047C418002026
:103AF0000A4800687047094A1268111800BF074A4F
:103B000012688A1A002AFADC70477047704700BFB3
:103B1000704700BF704700BF70470000640000207E
:103B20000146FE4A106806E0B0F904208A4201D13D
:103B30000022828000680028F6D170470146F848CC
:103B4000B0F90000884201D1002070474FF0FF30EB
:103B5000FBE70146B1F90000B1F90420904201DD14
:103B600000207047B1F90200B1F90620904201DD52
:103B70000020F6E70120F4E72DE9FC4107460D4659
:103B80003846FEF750FE0446A68B06F0020008B940
:103B9000BDE8FC8140F601003040012800D1F7E784
:103BA0002846FFF7D6FF00B9F2E7224629466846C5
:103BB000FEF7E9F86846FFF7CCFFB8B1207F00F0C8
:103BC000200030B16A4604F108010846FEF7C0FA49
:103BD0000CE00098A0600198E060A08B40F020000D
:103BE000A083D0480088401CCE49088000BFCFE7A2
:103BF0000020CD4908807047CC49098819B1CB49CC
:103C0000B1F9000002E0CA49B1F93C00704770B553
:103C100004460D46B4F90220B4F900102846FEF718
:103C2000D8FA70BD7CB50446C148806B18B92046EF
:103C3000FFF7D2FB16E0BE48806B01680091406838
:103C40000190FFF7D9FF0646FEF7EDFD05466946F0
:103C5000FFF7DDFF21466846FEF774F86846FFF778
:103C6000BBFB00BF7CBD70B506460D4600BF2846B5
:103C7000FEF7D9FD0446207F00F0020008B90020BD
:103C800070BD21463046FEF75DF8E08A00B902E0DB
:103C9000B4F91650EBE700BF2846FFF74FFF0028A6
:103CA00001DA0020ECE70120EAE71CB5A148007822
:103CB00018B1A148FFF7B6FF16E09D49B1F93C00E5
:103CC000FEF7B1FD0446D4E90001CDE900019748B3
:103CD000008828B19548B0F900106846FFF7C3FF87
:103CE0006846FFF79FFF00BF1CBD2DE9F84F064651
:103CF0008846B8F1000F3FD03046FEF794FD0446E9
:103D000000206083A4F816804046FEF78CFD07462D
:103D1000207F00F0080BB7F91890B9F1000F02D11D
:103D20003E83BDE8F88F4846FEF77DFD0546BBF1B2
:103D3000000F07D1287F00F0080018B1A4F81A90EE
:103D40003E83EEE700BFB5F91A00009008B96E8314
:103D500011E00098FEF767FD8246BBF1000F08D125
:103D60009AF81C0000F0080018B16E830098608378
:103D700001E05546E7E700BF00BFD2E72DE9F04775
:103D800007463846FEF74FFD8146B9F91680B8F16F
:103D9000000F20D04046FEF746FD0646B6F9185003
:103DA000BD4206D12846FEF73EFD0446608B3083B7
:103DB00011E00DE02846FEF736FD0446B4F91A007E
:103DC000B84203D1B9F81A00608303E0B4F91A507D
:103DD000002DEFD100BFBDE8F08770B5044657480D
:103DE000B0F9005008E021462846FFF7C5FE2846F6
:103DF000FEF719FDB0F91450002DF4D170BD70B567
:103E000005462846FEF70FFD0446B4F916603EB19C
:103E10002846FFF7B3FF2046FFF7DFFF0020E082D0
:103E200070BD70B504464248B0F93C6014B94348CF
:103E3000B0F900403E4884872046FEF7F4FC054672
:103E4000FFF75EFAB5F9000039490864B5F90200D8
:103E50004864304670BD2DE9F04106463748B0F958
:103E600000700EE03846FEF7DEFC0446B4F914504C
:103E7000B54205D13046FEF7D6FC808AA08202E02A
:103E80002F46002FEED100BFBDE8F08170B504468B
:103E90000D4654B12046FEF7C6FC0646306918B1FF
:103EA000AC8028463169884700BF70BD3EB50546E5
:103EB0000C46ADF80450009469462846FFF7E6FF2B
:103EC0003EBD70B505461D48B0F9004008E0AC4263
:103ED00001D1012070BD2046FEF7A5FCB0F91440C9
:103EE000002CF4D10020F5E770B5044604B970BD8C
:103EF0002046FFF7E6FF002861D02046FEF793FC3E
:103F00000546FFF775FE0E48B0F90000A04202D149
:103F100000200B4908800B4816E0000070000020CC
:103F2000740000206A000020960000209400002009
:103F3000C41800207C000020281B00206C000020FA
:103F40008200002080000020B0F90000A04202D1D1
:103F50000020FE4908802046FFF7E2FD07212046A9
:103F600000F068FEB5F9180000F02BF80B21204690
:103F7000FFF79CFF2046FFF742FF2046FFF76BFF4D
:103F8000287F00F0010020B1F1480068401EF04990
:103F90000860287F00F0200020B1EE480088401E15
:103FA000EC490880EC480088401EEB490880204618
:103FB000FEF797FCE948B0F90000FFF732FF00BFB9
:103FC00095E770B504460AE02046FEF72CFC05464E
:103FD000B5F91A602046FFF787FF344600BF002C72
:103FE000F2D170BD70B505460C4600BF2846FFF7FC
:103FF000F4FE70BD70B50446D848008868B1D74853
:10400000B0F90000FEF70FFC06462046FEF70BFC59
:104010000546B08AA882B48201E0D048048070BD11
:104020002DE9FC4706460C4617464EE03046FEF7A3
:10403000FAFB0546B0F81C8008F00200002842D0C8
:104040002FB13A4629466846FDF79DFE03E0D5E9C3
:104050000001CDE9000169462046FEF727F988B343
:1040600008F00100E0B9B5F90200B4F90210884285
:104070000CDDBDF90200401EB4F90610884221DAB9
:10408000BDF80200401E00B2E0801BE0BDF9060052
:10409000B4F90610884215DABDF80600E08011E098
:1040A000B5F918900AE04846FEF7BDFB82466A461D
:1040B00021464846FFF7B4FFBAF91A90B9F1000F4C
:1040C000F1D100BF00BFB5F91A60002EAED1BDE836
:1040D000FC872DE9FC5F06460D4617464FF0000BA6
:1040E0003BE03046FEF79FFB0446B0F81C8008F02A
:1040F000020080B32FB13A4621466846FDF743FEE1
:1041000003E0D4E90001CDE9000169462846FEF745
:10411000CDF8F8B108F0010038B9BDF80400401C32
:1041200000B228804FF0010B14E0B4F918900DE0B4
:104130004846FEF778FB82466A4629464846FFF71E
:10414000C8FF08B14FF0010BBAF91A90B9F1000F8E
:10415000EED100BF00BFB4F91A60002EC1D158469D
:10416000BDE8FC9F2DE9FC4706460D46174636E0A4
:104170003046FEF758FB0446B0F81C8008F00200F9
:1041800058B32FB13A4621466846FDF7FCFD03E0DF
:10419000D4E90001CDE9000169462846FEF786F81A
:1041A000D0B108F0010028B9BDF80000401E00B2EF
:1041B000A88011E0B4F918900AE04846FEF733FBF6
:1041C00082466A4629464846FFF7CCFFBAF91A905C
:1041D000B9F1000FF1D100BF00BFB4F91A60002E91
:1041E000C6D1BDE8FC8700224A800A808288038805
:1041F000D21A12B28A80C2884388D21A12B2CA80F6
:10420000704782680A60C2684A6070472DE9FF41C2
:1042100005460E463DB32846FEF705FB0446A78B30
:1042200007F00200F8B1D4E90001CDE9020166B15E
:10423000306800907068019069462046FFF7E7FCFF
:10424000694602A8FDF77EFD00BF294602A8FFF7D8
:104250000AFD40B140F601003840012804D129464A
:1042600002A8FFF7BFFE03E002A92846FFF784FC7F
:10427000BDE8FF8110B5044600212046FFF7C6FFC8
:1042800010BD2DE9F84F8046894692469B46DDE9F0
:104290000A753348008805432FB92F48008810B1AC
:1042A0003048B0F90070781C00B90027F7B13846E3
:1042B000FEF7B9FA0646B6F900008044B6F90200E6
:1042C0008144BAF1000F06D1B6F90400B6F9001026
:1042D000401A00F1010ABBF1000F06D1B6F9060041
:1042E000B6F90210401A00F1010B00BF0D98203002
:1042F00000B2FDF73DFE0090002859D01648008816
:10430000401C154908800098FEF78DFA04460FFA04
:1043100088F020800FFA89F0608008EB0A00401EC8
:1043200000B2A08009EB0B00401E00B2E0800C98A8
:104330002061A08B43F68F7129400843A083009829
:10434000FFF758FE394600980EE00000800000207C
:10435000900000206A000020680000206C0000200F
:104360007E00002074000020FFF7BFFC05F0200055
:1043700010B10098FFF755FD05F0010020B1FE488F
:104380000068401CFC49086005F0400010B100982E
:1043900000F0F4FB05F0020030B1A08B40F0020009
:1043A000A0830098FFF766FF01210098FFF77EFDCC
:1043B0000098BDE8F88F2DE9FF4704460D461646E4
:1043C0001F46DDE90D9ADDF8308000203B4632467D
:1043D00029468DE801072046FFF753FF04B0BDE8EA
:1043E000F087E648B0F93C0070477CB5E449D1E974
:1043F0000201CDE90001E248006940B9E0480088C7
:10440000ADF80000DE484088ADF802001BE0DC4853
:104410008089401C00B2ADF80000D9484089ADF851
:104420000200BDF90000D649B1F9041088420ADD46
:1044300000BFD3480088ADF80000D148C089401CB7
:1044400000B2ADF80200BDF90200CD49B1F9061085
:10445000884201DD00207CBDC849B1F93C00FEF76F
:10446000E2F90546BDF90000C549B1F900108842DE
:104470001FD1C348C088ADF80600C1488088ADF898
:104480000400BE48B0F93C600BE03046FEF7CBF9C3
:104490000446B4F91A0000226946FFF7C1FDB4F9D9
:1044A0001660002EF1D1B5F9180000226946FFF719
:1044B000B7FD00BFBDF80000ADF80400AF48B0F98B
:1044C0003C600DE03046FEF7AEF90446B4F91A0040
:1044D00000226946FFF7FDFD00B1EBE7B4F9166075
:1044E000002EEFD1B5F9180000226946FFF7F1FD63
:1044F00000B1DFE7A2488088ADF80400BDF90400F0
:10450000BDF90010884205DA9D48DDE90012C0E9D6
:1045100002128EE79948B0F93C600BE03046FEF796
:1045200082F90446B4F91A0000226946FFF71AFE20
:10453000B4F91660002EF1D1B5F9180000226946D1
:10454000FFF710FE8E480069C82801DD002082E7D1
:104550008B48DDE90012C0E9021201207BE710B5AB
:104560008848007808B9002010BD854840690128B6
:1045700006DD83484069401E814948610020F3E719
:104580007F480069401C7E490861FFF72EFF30B963
:104590007B484069401E7A4948610020E4E7FFF704
:1045A00084FB0120E0E77FB505467648007820B916
:1045B000FFF77BFB012004B070BD71484069401CCF
:1045C0006F494861012801DD0120F4E76B49B1F929
:1045D0003C00FEF728F904464FF0FF3068490861B7
:1045E0006948007820B102A92046FFF70AFE0FE0D3
:1045F000207F00F0020020B1D4E90001CDE90201E2
:1046000006E05F484069401E5D4948610020D2E7EE
:104610001DB1294602A8FDF795FB5848806BC0B133
:1046200026465648806B01680091406801905748C3
:10463000008828B15548B0F90000FEF7F4F80646A6
:1046400069463046FFF7E3FA694602A8FDF77AFBB0
:1046500000BF4E48008868B14C48B0F9001002A86D
:10466000FFF701FB30B946484069401E44494861A4
:104670000020A0E74148B0F93C1002A8FFF7F3FA88
:1046800030B93F484069401E3D494861002092E7EB
:104690003B48DDE9021206C0FFF761FF8BE710B56A
:1046A000FDF740FE00203549886310BDFEB5054684
:1046B0000C46A68B2069002835D006F0020090B386
:1046C00031480078401C3049087006F4805068B1C9
:1046D000ADF804500F20009004F108000290FFF79D
:1046E000DEFF69462846FFF7D1FB16E004F108001B
:1046F000FFF759FF88B100BFADF804500F200090BC
:1047000004F108000290FFF7CAFF69462846FFF748
:10471000BDFBFFF724FF0028EED11B480078401EA8
:104720001949087000BFFEBD2DE9F04105460C4651
:104730001249B1F93C00FEF776F88046214608F1AF
:104740000800FDF7B3FD60B30C48066C476C08F138
:104750000802214604F10800FDF715FB0B4805800F
:10476000B4F9000005490864B4F902004864214620
:104770002846FFF79BFF0BE090000020C4180020A4
:10478000201B00207C0000208C00002094000020D2
:104790000020CC490880CC48066447640120BDE86D
:1047A000F0810020FBE77CB50446207F00F002008A
:1047B00030B3B4F9186021E03046FEF734F805460E
:1047C000287F00F00300032816D104F108012846D1
:1047D000FDF76CFD80B1A0680090E068019029466B
:1047E0003046FFF7A1FF10B12846FFF7DCFF009825
:1047F000A0600198E06000BFB5F91A60002EDBD11F
:104800007CBD2DE9F04106460C46B4F91670B4F9AA
:104810001A601CE011E03046FEF705F80446207FE0
:1048200000F00300032803D121463046FFF77CFF48
:104830002046FFF7B8FFB4F91A60002EEBD13846D6
:10484000FDF7F1FF0546B5F91A60B5F91670002FAE
:10485000E0D1BDE8F08170B50446B4F90060656848
:10486000A88B40F601010840012803D029463046B4
:10487000FFF71CFF9548006830B12846FFF793FF0B
:1048800029463046FFF7BDFF70BD7CB505460C4696
:104890000026207F00F0200018B3206980B129464F
:1048A00004F10800FFF7DFF950B1ADF800500194B2
:1048B0002846FFF7B6FA6846FFF7CDFF012600BF8E
:1048C000A08B20F02000A083A08B00F4005018B132
:1048D000A08B40F00400A0837D480088401E7C49E6
:1048E000088030467CBD70B594B0012679480088B8
:1048F00018B97948B0F9000002E07648B0F9000034
:1049000004466846FDF7F0FC0CE02046FDF78BFFFF
:10491000054629462046FFF7B8FF00B1761EB5F9D7
:10492000144000BF0CB1002EEFD16A4804806846E5
:10493000FDF7E2FC14B070BD10B56848006810B116
:104940006648006880476648006828B16448006887
:10495000804708B1012010BDFDF768FC08B10120B7
:10496000F9E76048007830B15948008818B1FFF77E
:10497000BAFF0120EFE70020EDE710B5002400E0CA
:104980000124FFF7D9FF0028FAD1204610BD2DE9F8
:10499000F0410446B4F90450A6682846FDF743FFE9
:1049A0000746206817280FD004DC0E280FD01428E3
:1049B0001AD104E022280FD0282815D110E0314662
:1049C0003846FFF710FC0FE0A560BDE8F0812146F6
:1049D000284600F057F9F8E76FF07040A060F4E760
:1049E0002846FFF747FCF0E700BF0020A060A0606A
:1049F00000BFEAE770B5044620680E2802D00F28F1
:104A000018D107E0A5686868012802D12868FDF779
:104A1000F9FB13E00026344850F826006FF070418F
:104A2000884206D0304951F82600FDF76FFCFEF7AA
:104A3000EBF900BF2046FFF7AAFF00BF00BF70BD23
:104A4000012028490870704710B5002025490870DA
:104A5000FEF756FC10BD0EB52448007880BB002040
:104A60001D4908801B490880174988631849088038
:104A70001F4908801F49022240F6FF73CDE900213B
:104A800002901A460146FFF796FC1B4908806FF01A
:104A90007040154908601849B1F90000FFF7EAFBBA
:104AA000164800F08FF8164800F08CF81249B1F95A
:104AB0000000FFF7B6F9FFF7C3FF01200B490870AC
:104AC0000EBD000094000020C418002090000020BB
:104AD0006A000020960000206C0000208800002062
:104AE000580000207C000020780000209800002062
:104AF00068000020F5490008740000209C00002098
:104B0000A400002010B50446204600F089F80446B1
:104B10002CB12046FDF787FEB0F9180010BD00202B
:104B2000FCE770B505462846FFF7ECFF06460EE0A9
:104B3000AE4201D100260CE03046FDF774FE04467B
:104B4000B4F91A00A84200D103E0B4F91A60002EAB
:104B5000EED100BF304670BD70B505460C46284604
:104B6000FDF761FE0646A580306918B1204631691F
:104B7000884702E02046FFF70AFF70BD2DE9F047A5
:104B80000546EDB12846FDF74EFE04462846FFF7E0
:104B9000C8FF0646A6B1284600F042F881464846BE
:104BA000FDF741FE07463046FDF73DFE8046608B2F
:104BB000A8F81A00388B60833D832046FFF70DF973
:104BC000BDE8F08712490968016011490860704723
:104BD00010B502460E480068C8B100210C4B186899
:104BE00011E090420DD111B103680B6008E0036839
:104BF0001BB1074C0368236002E00023044C2360D0
:104C000003E0014600680028EBD100BF00BF10BDE3
:104C1000700000200148B0F90000704774000020C7
:104C200010B5044624B12046FDF7FDFDB0F916404D
:104C3000204610BD3EB505460C4626200090029445
:104C40006946284600F01EF83EBD000070B586B0EB
:104C500004460D4600260A48008868B10194029572
:104C60000E20039001A8059003A90548B0F90000A3
:104C7000FFF772FF012600BF304606B070BD00008E
:104C80008200002070B505460C4654B12846FFF757
:104C9000C7FF064626B1E58021463046FFF7F6F805
:104CA00000BF70BD10B50146C1F3C402C1F3852336
:104CB000C1F3C44404EB431000EBC22010BD4FF617
:104CC000FF70704710B5431A934209D283188818B1
:104CD00003E010F8011D03F8011D521EF9D210BDAA
:104CE00040EA01039B0703D009E008C9121F08C06E
:104CF000042AFAD203E011F8013B00F8013B521EEE
:104D0000F9D210BDD2B201E000F8012B491EFBD24E
:104D100070470022F6E710B513460A4604461946C6
:104D2000FFF7F0FF204610BD2DE9F05F054600209B
:104D300092469B4688460646814640241BE028460C
:104D400041464746224600F02FF853465A46C01ABD
:104D5000914110D311461846224600F016F82D1A3C
:104D600067EB01084F4622460120002100F00DF8B4
:104D700017EB00094E41201EA4F10104DFDC484678
:104D800031462A464346BDE8F09F202A04DB203AFC
:104D900000FA02F1002070479140C2F1200320FA8E
:104DA00003F3194390407047202A04DB203A21FA8C
:104DB00002F00021704721FA02F3D040C2F1200234
:104DC0009140084319467047064C074D06E0E068DD
:104DD00040F0010394E8070098471034AC42F6D342
:104DE000FBF7AAF94C6A00086C6A00080FB4084B7C
:104DF00010B504A902AA039800F01CF8044602A901
:104E0000002000F048FA204610BC5DF814FB0000BA
:104E10009752000802E008C8121F08C1002AFAD100
:104E200070477047002001E001C1121F002AFBD12A
:104E3000704700002DE9FF4F8DB00F460546002654
:104E400006E025280BD0DDE90F1290476D1C761C7B
:104E500028780028F5D111B03046BDE8F08F002445
:104E6000A246A1460122EC4900E0044315F8013FA7
:104E7000203B02FA03F00842F7D128782A2810D004
:104E80006FF02F022878A0F13001092914D80AEB1D
:104E90008A0102EB410144F0020400EB010A6D1C9F
:104EA000F0E701CF5FEA000A03D544F40054CAF1E9
:104EB000000A44F002046D1C28782E2817D115F83A
:104EC000010F44F004042A280ED06FF02F02287836
:104ED000A0F1300109290AD809EB890102EB41014F
:104EE00000EB01096D1CF2E757F8049B6D1C287854
:104EF0006C280FD006DC4C2817D068280DD06A2803
:104F000014D104E0742810D07A280FD10DE044F4B5
:104F100000140AE044F4801401E044F44014697879
:104F2000814202D104F580146D1C6D1C2A786E2A12
:104F30001FD00CDC632A31D004DC002A8BD0582A25
:104F400011D1A3E0642A68D0692A0CD165E0732AE4
:104F50002ED004DC6F2A73D0702A04D19BE0752A0E
:104F60006FD0782A6ED01046DDE90F129047761C7C
:104F700050E1C4F30250022806D0032809D00428C7
:104F800001CF09D0066045E101CFF117C0E900610A
:104F900040E101CF06803DE106703BE117F8040BCC
:104FA0008DF8000000208DF80100EB46012003E0A1
:104FB00057F804BB4FF0FF3061074FF0000102D4F7
:104FC0000DE008F10101884649450FDA8045F8DB1C
:104FD0001BF808100029F4D108E008F10101884607
:104FE0008142FADB1BF808100029F6D1DDE90F2316
:104FF000AAEB08008146214600F036F9304400EB68
:10500000080604E0DDE90F121BF8010B9047B8F128
:105010000108F7D221464846F7E00A21C4F30253BB
:105020004FF0000B0891022B04D001CFC117032BC6
:1050300009D00AE0FF1D27F00707F7E8020108E0A2
:1050400032E01FE020E000B2C117042B01D140B2D2
:10505000C117031E71F1000307DA4FF0000CD0EB0B
:105060000C006CEB01012D2302E0230504D52B235A
:105070008DF82430012303E0E30701D02023F7E774
:10508000984658E00A2110E010210EE010204FF061
:10509000000B08900CE010214FF0000B44F00404CA
:1050A0004FF00809089103E008214FF0000B089128
:1050B000C4F30253022B04D001CF0021032B06D0EE
:1050C00006E0FF1D27F00707F7E8020103E080B2C2
:1050D000042B00D1C0B24FF0000823072BD5702A53
:1050E00007D0DDF820C08CF0100C5CEA0B0C05D06A
:1050F0000EE040238DF82430012308E050EA01033C
:1051000006D030238DF824308DF8252002239846D0
:10511000DDF820C08CF0080C5CEA0B0C0BD150EAD7
:10512000010301D1630706D530238DF824304FF0F9
:105130000108A9F10109582A04D038A20B9208AA43
:105140000A920BE03AA2F9E75B46089AFFF7ECFDFA
:105150000B9B9B5C0A9A521E0A92137050EA010242
:10516000F2D10A98ADEB000000F1200B600702D5E8
:1051700024F4803401E04FF00109D94502DDA9EBA8
:105180000B0000E0002000EB0B0141440890AAEB6B
:10519000010AE00306D4DDE90F232146504600F062
:1051A00063F806444FF0000908E009A911F8090066
:1051B000DDE90F12904709F10109761CC145F4DBC6
:1051C000E0030CD5DDE90F232146504600F04CF8F2
:1051D000064404E0DDE90F1230209047761C089960
:1051E000481E08900029F5DC08E00A980A99007822
:1051F000491C0A91DDE90F129047761CBBF10001B2
:10520000ABF1010BF1DC21465046DDE90F2300F044
:1052100019F806446D1C1BE60928010030313233B1
:1052200034353637383961626364656600000000E2
:1052300030313233343536373839414243444546CC
:10524000000000002DE9F041044600251E461746E7
:10525000880404D405E039462020B0476D1C641E44
:10526000F9D52846BDE8F0812DE9F0410446002536
:105270001E469046C80301D5302700E02027880449
:1052800004D505E041463846B0476D1C641EF9D58B
:105290002846BDE8F0810A68531C0B601070704707
:1052A00030000000000000000000000000000000CE
:1052B00000000404040404040004000000140A0AAA
:1052C0000000000000000000000014143F140A3F1A
:1052D0000A0A000000041E1505060C14150F040030
:1052E000000012150D0A142C2A1200000000040AF6
:1052F0000A1E151509360000000202010000000018
:10530000000000000020100808080808081020000D
:10531000000204080808080808040200000000044D
:10532000150E0E150400000000000404041F040400
:105330000400000000000000000000000002020164
:1053400000000000001F000000000000000000003E
:105350000000000000020000001008080804040219
:105360000202010000000E1111111111110E0000B6
:105370000000040604040404040E000000000E11E2
:1053800011080402011F000000000E11100C101083
:10539000110E00000000080C0A0A091E081800007F
:1053A00000001F01010F1010110E000000000E0977
:1053B000010F1111110E000000001F090804040460
:1053C0000404000000000E11110E1111110E000056
:1053D00000000E1111111E10120E0000000000003E
:1053E00004000000000400000000000000040000B1
:1053F000000404000020100804020408102000002B
:10540000000000001F00001F000000000002040850
:10541000102010080402000000000E1111080404FE
:105420000004000000000E111915151D011E0000DA
:10543000000004040C0A0A1E1233000000000F12C0
:10544000120E1212120F000000001E1101010101C4
:10545000110E000000000F1212121212120F0000A3
:1054600000001F120A0E0A02121F000000001F1285
:105470000A0E0A020207000000001C120101391185
:10548000120C000000003312121E12121233000020
:1054900000001F0404040404041F000000003E0870
:1054A0000808080808090700000037120A060A0A57
:1054B000123700000000070202020202223F000031
:1054C00000001B1B1B1B15151515000000003B12CF
:1054D00016161A1A1217000000000E1111111111E0
:1054E000110E000000000F12120E0202020700004F
:1054F00000000E1111111117190E180000000F12E3
:10550000120E0A121237000000001E1101060810C8
:10551000110F000000001F1504040404040E000015
:105520000000331212121212120C0000000033128B
:10553000120A0A0C0404000000001515150E0A0AD0
:105540000A0A000000001B0A0A04040A0A1B0000E1
:1055500000001B0A0A040404040E000000001F09D6
:1055600008040402121F0000001C040404040404C4
:1055700004041C00000202020404080808100000D1
:10558000000E08080808080808080E0000040A00B1
:10559000000000000000000000000000000000000B
:1055A0000000003F000400000000000000000000B8
:1055B00000000000000C121C123C0000000003025E
:1055C000020E1212120E000000000000001C120257
:1055D000021C000000001810101C1212123C0000E7
:1055E00000000000000C121E021C00000000380425
:1055F000041E0404041E000000000000003C120C05
:10560000021E221C00000302020E121212370000BA
:105610000000040000060404040E0000000008005E
:10562000000C08080808080700000302023A0A0EE6
:10563000123700000000070404040404041F0000E3
:1056400000000000000F15151515000000000000F7
:10565000000F12121237000000000000000C12129E
:10566000120C000000000000000F1212120E0207C0
:1056700000000000001C1212121C10380000000074
:10568000001B06020207000000000000001E020CC2
:10569000101E000000000004040E040404180000A2
:1056A00000000000001B1212123C0000000000006D
:1056B0000037120A0C040000000000000015150E4F
:1056C0000A0A000000000000001B0A040A1B000078
:1056D000000000000037120A0C0404030000000060
:1056E000001E0804041E000000180808080408082A
:1056F0000808180008080808080808080808080822
:10570000000604040408040404040600022518002A
:105710000000000000000000000000000000000089
:1057200000000000000000000000183C3C3C18187D
:1057300018001818000000000066666624000000CB
:1057400000000000000000000000006C6CFE6C6CAB
:105750006CFE6C6C0000000018187CC6C2C07C0691
:1057600086C67C181800000000000000C2C60C1895
:105770003060C686000000000000386C6C3876DCB3
:10578000CCCCCC760000000000303030600000004F
:10579000000000000000000000000C183030303025
:1057A0003030180C00000000000030180C0C0C0CFD
:1057B0000C0C1830000000000000000000663CFFE8
:1057C0003C66000000000000000000000018187E89
:1057D0001818000000000000000000000000000099
:1057E000001818183000000000000000000000FE43
:1057F00000000000000000000000000000000000A9
:1058000000001818000000000000000002060C183C
:105810003060C0800000000000007CC6C6CED6D636
:10582000E6C6C67C0000000000001838781818187A
:105830001818187E0000000000007CC6060C183006
:1058400060C0C6FE0000000000007CC606063C06E4
:105850000606C67C0000000000000C1C3C6CCCFE60
:105860000C0C0C1E000000000000FEC0C0C0FC0EAE
:105870000606C67C0000000000003860C0C0FCC600
:10588000C6C6C67C000000000000FEC606060C1856
:10589000303030300000000000007CC6C6C67CC638
:1058A000C6C6C67C0000000000007CC6C6C67E06D8
:1058B00006060C7800000000000000001818000028
:1058C0000018180000000000000000001818000078
:1058D0000018183000000000000000060C183060AE
:1058E00030180C0600000000000000000000FE0060
:1058F00000FE0000000000000000006030180C06F0
:105900000C1830600000000000007CC6C60C18189F
:1059100018001818000000000000007CC6C6DEDE7B
:10592000DEDCC07C00000000000010386CC6C6FE43
:10593000C6C6C6C6000000000000FC6666667C663F
:10594000666666FC0000000000003C66C2C0C0C085
:10595000C0C2663C000000000000F86C6666666627
:1059600066666CF8000000000000FE6662687868F9
:10597000606266FE000000000000FE6662687868F3
:10598000606060F00000000000003C66C2C0C0DE45
:10599000C6C6663A000000000000C6C6C6C6FEC6FF
:1059A000C6C6C6C60000000000003C18181818182B
:1059B0001818183C0000000000001E0C0C0C0C0C09
:1059C000CCCCCC78000000000000E6666C6C7878E7
:1059D0006C6666E6000000000000F06060606060D9
:1059E000606266FE000000000000C6EEFEFED6C645
:1059F000C6C6C6C6000000000000C6E6F6FEDECE43
:105A0000C6C6C6C6000000000000386CC6C6C6C6C2
:105A1000C6C66C38000000000000FC6666667C604C
:105A2000606060F00000000000007CC6C6C6C6C60C
:105A3000C6D6DE7C0C0E00000000FC6666667C6C40
:105A4000666666E60000000000007CC6C660380C92
:105A500006C6C67C0000000000007E7E5A1818189A
:105A60001818183C000000000000C6C6C6C6C6C60E
:105A7000C6C6C67C000000000000C6C6C6C6C6C6B4
:105A8000C66C3810000000000000C6C6C6C6C6D6E8
:105A9000D6FE6C6C000000000000C6C66C6C383886
:105AA0006C6CC6C6000000000000666666663C18A6
:105AB0001818183C000000000000FEC6860C1830C4
:105AC00060C2C6FE0000000000003C3030303030C4
:105AD0003030303C0000000000000080C0E0703832
