:020000040800F2
:10000000680200209D040008A1040008A304000861
:10001000A5040008A7040008A904000800000000C7
:10002000000000000000000000000000AB04000819
:10003000AD04000800000000AF040008B10400088F
:10004000B3040008B3040008B3040008B3040008B4
:10005000B3040008B3040008B3040008B3040008A4
:10006000B3040008B3040008B3040008B304000894
:10007000B3040008B3040008B3040008B304000884
:10008000B3040008B3040008B3040008B304000874
:10009000B3040008B3040008B3040008B304000864
:1000A000B3040008B3040008B3040008B304000854
:1000B000B3040008B3040008B3040008B304000844
:1000C000B3040008B3040008B3040008B304000834
:1000D000B3040008B3040008B3040008B304000824
:1000E000B3040008B3040008B304000800F002F8E9
:1000F00000F03AF80AA090E8000C82448344AAF188
:100100000107DA4501D100F02FF8AFF2090EBAE885
:100110000F0013F0010F18BFFB1A43F0010318473B
:10012000581F0000781F0000103A24BF78C878C11B
:10013000FAD8520724BF30C830C144BF04680C60ED
:10014000704700000023002400250026103A28BF35
:1001500078C1FBD8520728BF30C148BF0B60704739
:100160001FB51FBD10B510BD01F011FA1146FFF704
:10017000F7FF00F0ADF901F02FFA03B4FFF7F2FF3B
:1001800003BC01F037FA0000BB48006840F00100F2
:10019000B949086008464068B8490840B64948600F
:1001A00008460068B6490840B34908600846006838
:1001B00020F4802008600846406820F4FE00486073
:1001C0004FF41F00886070472DE9F0410546002775
:1001D0000026382D15D006DC202D09D0282D0AD078
:1001E000302D17D10AE0402D0ED0482D12D10EE04F
:1001F0004FF4002411E04FF440240EE04FF480143B
:100200000BE04FF4A01408E04FF4C01405E04FF4E5
:10021000E01402E0FF20BDE8F08100BFFFF7B4FF6B
:100220009548006820F480309349086008460068CB
:1002300040F48030086000BF8F48006800F4003749
:10024000761C6FF07040864201D2002FF4D08A48AD
:10025000006800F4003000284DD08A48006840F063
:100260001000884908600846006820F00300086014
:100270000846006840F0020008607F48406843F686
:10028000F07188437C4948600846406840F48060CB
:1002900048600846406820F440304860084640689E
:1002A00040F4803048600846406820F47010486090
:1002B00008464068204348600846006840F0807067
:1002C000086000BF6C48006800F000700028F9D09A
:1002D0006948406820F00300674948600846406864
:1002E00040F00200486000BF6348406800F00C0026
:1002F0000828F9D103E0FFF747FFFF208BE7002034
:1003000089E7072222EA000109025F4A0A435F4B9C
:100310001A607047F0B50346002000250F245B4E9D
:10032000366806F4E066C6F5E066300AC0F10405FA
:10033000C44003FA05F001EA040630430001544EBC
:10034000B05402F01F070126BE405711BF0007F14D
:10035000E027C7F80061F0BD30B54821481EB0F174
:10036000807F01D301201CE0481E4FF0E022506145
:1003700050170F22002808DA13071D0E434B0C33C9
:1003800000F00F04241F1D5503E013071C0E404B03
:100390001C5400BF00204FF0E02290610720106144
:1003A000002038B94FF0E020006920F003004FF042
:1003B000E021086130BD00EBC0020123C3EBC202A3
:1003C0004FF0E0235A6100229A611A46126942F006
:1003D00001021A6100BF4FF0E022116901F480327E
:1003E000002AF8D04FF0E022126922F001024FF00B
:1003F000E0231A617047274A4FF0E0235A61002238
:100400009A611A46126942F001021A6100BF4FF068
:10041000E022116901F480320AB1421E90B2002834
:10042000F5D14FF0E022126922F001024FF0E023F3
:100430001A61704700EB800290B2174A4FF0E02338
:100440005A6100229A611A46126942F001021A6149
:1004500000BF4FF0E022116901F480320AB1421E60
:1004600090B20028F5D14FF0E022126922F001028B
:100470004FF0E0231A617047001002400000FFF0C7
:10048000FFFFF6FE002002400000FA050CED00E040
:1004900000E400E03F190100FFB9DB000848004715
:1004A000FEE7FEE7FEE7FEE7FEE7FEE7FEE7FEE724
:1004B000FEE7FEE703480449024A044B7047000088
:1004C000ED0000086800002068020020680000209D
:1004D00008B500244820FFF777FE00F03FF84FF4FE
:1004E00078431CA2DF214FF4887000F067FA2FE0F8
:1004F000641C4FF6E0701423642219460090C82053
:1005000000F094FC6420FFF776FFC8234FF4967246
:100510001946642000F070F8D2234FF49672194601
:10052000642000F069F8DC234FF4967219466420C9
:1005300000F062F8E6234FF496721946642000F04A
:100540005BF8EB234FF496721946642000F054F8E0
:10055000CEE7000052756E696E67000010B500F0BE
:100560000EFD00F0D0FD00F00FFE00F015FF00F0D2
:100570000FFF002404E040F2FF70F8490880641C7B
:10058000B4F5963FF7D310BD2DE9F04707468846EE
:1005900014461D46DDF82090002000F01EFE2B467C
:1005A00022464146384600F05EFE04FB05FA00266E
:1005B00003E0EA48A0F80090761C5645F9D3BDE860
:1005C000F08770B504460D4601231A462946204699
:1005D00000F049FEE2480088E049088070BD70B52F
:1005E00005460E46144601231A463146284600F0B9
:1005F0003AFEDA48048070BD2DE9F04704460D4606
:1006000016461F46002000F0E8FDB44206D1BD4268
:1006100004D129462046FFF7D4FF4AE0301B791B5E
:10062000002901DB0A4600E04A42002801DB0346BC
:1006300000E043429A421EDDBD4205DDAA463D462A
:100640005746A24634465646A94611E0A9EB050096
:10065000311B4843791BB0FBF1F020441FFA80F8AE
:1006600049464046FFF7ADFF09F101001FFA80F946
:10067000B945EBDB1DE0B44205DDAA463D465746D1
:10068000A24634465646A04611E0A8EB0400791B6A
:100690004843311BB0FBF1F028441FFA80F949466A
:1006A0004046FFF78EFF08F101001FFA80F8B045C1
:1006B000EBDBBDE8F0872DE9F04707460E46904694
:1006C0009946B7F59D7F01DCE42E01DDBDE8F0879A
:1006D0000C2306223146384600F0C5FDA8F1200063
:1006E00000F0FF0800243DE008EB48009D4901EBC5
:1006F000800010F804A0002530E00AF0010088B165
:1007000065B9C4F10C0083B2301981B206223846B3
:1007100000F0A9FD9148A0F800901BE08F48A0F8D8
:10072000009017E0052D0AD1C4F10B0083B23019F7
:10073000401C81B20622384600F095FD0AE0C5F162
:1007400006039AB2331999B27B195B1C98B2012344
:1007500000F089FD4FEA6A0A681CC5B2062DCCDBA1
:10076000601CC4B20C2CBFDB00BFAFE72DE9F04723
:100770000646884617469946B6F59A7F02DCB8F1D8
:10078000EA0F01DDBDE8F08706230C224146304622
:1007900000F069FDA7F12000C7B200244BE07248C9
:1007A000007838B907EB47006E4901EB800010F87C
:1007B00004A008E007EB47006A4901EB8000C4F1A0
:1007C0000C0110F801A0002531E00AF0010088B109
:1007D00065B9C4F10C018AB2311988B206234146C9
:1007E00000F041FD5D48A0F800901CE05B48A0F8D7
:1007F000009018E0052D0AD1C4F10B018AB231191D
:10080000491C88B20623414600F02DFD0BE0C5F1DE
:10081000060293B208EB0502521C91B2321990B253
:10082000012200F020FD4FEA6A0A681CC5B2062DBD
:10083000CBDB601CC4B20C2CB1DB00BFA2E72DE9FE
:10084000F04707460E4691469846B7F59C7F01DC77
:10085000E02E01DDBDE8F08710230822314638463E
:1008600000F001FD00243FE0A9F1200004EB00109E
:100870003E4911F800A0002532E00AF0800088B15E
:1008800065B9C4F1100083B2301981B2082238462C
:1008900000F0E9FC3148A0F800801BE02F48A0F8E8
:1008A000008017E0072D0AD1C4F10F0083B2301980
:1008B000401C81B20822384600F0D5FC0AE0C5F1A0
:1008C00008039AB2331999B27B195B1C98B20123C1
:1008D00000F0C9FC4FEA4A604FEA106A681CC5B2D2
:1008E000082DCADB601CC4B2102CBDDB00BFB1E711
:1008F0002DE9F04706460F4691469846B6F5987F93
:1009000001DCE82F01DDBDE8F0870823102239461D
:10091000304600F0A8FC00244CE0A9F12000102192
:1009200001EB0010001B114911F800A000253DE06B
:100930000AF08000E0B165B9C4F110018AB2311942
:1009400088B20823394600F08EFC0448A0F80080E5
:1009500026E00248A0F8008022E0000000000260CB
:10096000000000200216000802000020761A00088D
:10097000072D0AD1C4F10F018AB23119491C88B27E
:100980000823394600F06FFC0AE0C5F1080293B273
:100990007A19521C91B2321990B2012200F063FC14
:1009A0004FEA4A604FEA106A681CC5B2082DBFDBE7
:1009B000601CC4B2102CB0DB00BFA4E72DE9F041ED
:1009C00005460E4614461F46002000F006FC15E0C2
:1009D000B5F59C7F03DD002506F1100086B2E02E00
:1009E00002DD00200646054622783B463146284671
:1009F000FFF725FF05F1080085B2641C2078002868
:100A0000E6D1BDE8F0812DE9F05F05460E461746B8
:100A10009846DDF828B0B5F59C7F01DCE02E01DDBD
:100A2000BDE8F09F102308223146284600F01BFC49
:100A3000002420E0A7F1200004EB0010F94911F890
:100A400000904FF0000A11E009F0800018B1F6485C
:100A5000A0F8008002E0F448A0F800B04FEA496036
:100A60004FEA10690AF1010000F0FF0ABAF1080F1D
:100A7000EADB601CC4B2102CDCDB00BFD0E72DE940
:100A8000F84F0746894616469846DDE90AAB012429
:100A90000025002000F0A1FB01E0681C85B2705D1C
:100AA0000028FAD113E0291BCDF800B0725C0821B0
:100AB00001FB147188B253464946FFF7A4FF601C3E
:100AC00084B2444501DAAC4201DDBDE8F88F281B51
:100AD000305C0028E7D100BFF7E72DE9F04105467B
:100AE0000E4614461F46012000F077FB15E0E82E65
:100AF00003DD0026A5F1100085B2B5F5987F02DD73
:100B000000200546064622783B4631462846FFF738
:100B1000EFFE641C06F1080086B220780028E6D1BA
:100B2000BDE8F0812DE9F04706468846144699460F
:100B300025460027002000F050FB3CB94B463022F0
:100B400041463046FFF7B7FDBDE8F08704E00A20D4
:100B5000B5FBF0F5781CC7B2002DF8D117E00A20DC
:100B6000B4FBF0F100FB114000F1300A39467A1E67
:100B7000D7B201EB41014900891F314488B24B468D
:100B800052464146FFF797FD0A20B4FBF0F4002CD3
:100B9000E5D100BFD8E72DE9F04105460E461446E1
:100BA0001F46002000F019FB14E0B5F59D7F03DD22
:100BB000002506F10C0086B2E42E02DD0020064678
:100BC000054622783B4631462846FFF774FDA81DAE
:100BD00085B2641C20780028E7D1BDE8F0812DE9BA
:100BE000F04105460E4614461F46012000F0F5FA76
:100BF00014E0EA2E03DD0026A5F10C0085B2B5F560
:100C00009A7F02DD00200546064622783B463146A3
:100C10002846FFF7ABFDB01D86B2641C2078002883
:100C2000E7D1BDE8F08110B5029C10BD10B5029C63
:100C300010BD704770472DE9F84304460D4616462F
:100C40001F46DDF82080002000F0C7FA16E0B4F55A
:100C5000987F03DD002405F1100085B2E02D01DD51
:100C6000002500243B46324629462046CDF8008028
:100C7000FFF7D9FFB61C04F1100084B230780028C9
:100C8000E5D1BDE8F8832DE9F84304460D46164644
:100C90001F46DDF82080012000F09FFA16E0E02DCD
:100CA00003DD0025A4F1100084B2B4F5987F01DDC6
:100CB000002500243B46324629462046CDF80080D8
:100CC000FFF7B4FFB61C05F1100085B2307800289C
:100CD000E5D1BDE8F8832DE9F04104460D461646FE
:100CE0001F46002000F079FA14E0B4F5987F03DD88
:100CF000002405F1100085B2E02D01DD002500245F
:100D00003B46324629462046FFF793FFB61C04F1C6
:100D1000100084B230780028E7D1BDE8F0812DE9D9
:100D2000F04104460D4616461F46012000F055FAD4
:100D300014E0E02D03DD0025A4F1100084B2B4F529
:100D4000987F01DD002500243B4632462946204697
:100D5000FFF770FFB61C05F1100085B2307800284F
:100D6000E7D1BDE8F0812DE9F047074688461446F3
:100D700099463E464546012000F02FFA30E02078A3
:100D80007D2810DAE82D03DD0025A6F1100086B2DB
:100D900022784B4629463046FFF7AAFD641C05F130
:100DA000080085B21CE02078A32809D14B462022F8
:100DB00029463046FFF79CFDA41C06F1080086B2C8
:100DC000E02D03DD0025A6F1100086B24B46224639
:100DD00029463046FFF72EFFA41C05F1100085B20E
:100DE00020780028CBD1BDE8F08770B5064640F2E8
:100DF0003F13EF220021084600F035FA00240DE0F1
:100E0000002506E0324621462846FFF7E8FB681C2D
:100E100085B2B5F5A07FF5DB601C84B2F02CEFDB6A
:100E200070BD0000761A0008000002602DE9F0474E
:100E300004460D4690469946DDF820A04B464246B2
:100E40002946204600F00FFA2E460FE0274606E01E
:100E5000524631463846FFF7C2FB781C87B204EB96
:100E60000800401CB842F3DC701C86B205EB090098
:100E7000401CB042EADCBDE8F08700001AB901234B
:100E80008B40436102E001238B400361704730B522
:100E9000FE4CA04206D1FE4CA46944F00404FC4D73
:100EA000AC613CE0FB4CA04206D1F94CA46944F093
:100EB0000804F74DAC6132E0F74CA04206D1F44C87
:100EC000A46944F01004F24DAC6128E0F34CA04258
:100ED00006D1EF4CA46944F02004ED4DAC611EE056
:100EE000EF4CA04206D1EA4CA46944F04004E84D1E
:100EF000AC6114E0EB4CA04206D1E54CA46944F08F
:100F00008004E34DAC610AE0E74CA04206D1E04C1E
:100F1000A46944F48074DE4DAC6100E030BD02F0A1
:100F20000F028C06210E1F290ADC04680F258D4054
:100F3000AC430460046802FA01F52C4304600EE03F
:100F40003F290CDCA1F12004E1B244680F258D405B
:100F5000AC434460446802FA01F52C43446000BF8E
:100F6000DCE700B501220D21CA48FFF787FF00BD6D
:100F700000B500220D21C748FFF780FF00BD00B576
:100F8000002303220D21C348FFF781FF0023032222
:100F90000121C348FFF77BFF00230B221946BF48FE
:100FA000FFF775FF00230B220121BC48FFF76FFFFD
:100FB00000230B220421B948FFF769FF00230B220D
:100FC0000521B648FFF763FF00230B220721B34832
:100FD000FFF75DFF00230B220821B048FFF757FF02
:100FE00000230B220921AD48FFF751FF00230B22FC
:100FF0000A21AA48FFF74BFF00230B221146A748FE
:10100000FFF745FF00230B220E21A448FFF73FFF07
:1010100000230B220F21A148FFF739FF00230B22E9
:1010200007219F48FFF733FF00230B2208219C482C
:10103000FFF72DFF00230B2209219948FFF727FF17
:1010400000230B220A219648FFF721FF00230B22E1
:1010500011469348FFF71BFF00230B220C219048F9
:10106000FFF715FF00230B220D218D48FFF70FFF1F
:1010700000230B220E218A48FFF709FF00230B22D1
:101080000F218748FFF703FF012207218348FFF75D
:10109000F5FE012200218148FFF7F0FE01221146F2
:1010A0007E48FFF7EBFE01220E217C48FFF7E6FEAB
:1010B00001220F217948FFF7E1FE0122072178483C
:1010C000FFF7DCFE012208217548FFF7D7FE012259
:1010D00009217348FFF7D2FE01220A217048FFF769
:1010E000CDFE002201216E48FFF7C8FE0122042137
:1010F0006A48FFF7C3FE012205216848FFF7BEFEDC
:10110000FFF72FFF00BD6248406940F480706049DE
:10111000486100204FF02041086048606349086042
:101120004FF02040006840F480504FF020410860AC
:101130000846006840F4804008600846006840F0B7
:10114000100008600846406848600846406840F063
:10115000010048600846406840F4706048605348A9
:101160000068C1F8040151480068C1F8040108464C
:10117000D0F8040140F44070C1F80401084600684A
:1011800040F001000860704710B50022012144487A
:10119000FFF774FE42F21070FFF70DF901221146BD
:1011A0003F48FFF76BFE42F6E060FFF704F910BD21
:1011B00010B50021002300222E204FF0C0442080D3
:1011C0003B480188018802880388C812C0029C122B
:1011D00040EA441040EAE22010BD10B1012840D19D
:1011E0001FE036210A0711806821314A11802A2127
:1011F0004FF0C042118000212D4A11801180012141
:1012000011803F2111802B214A0711800021284A9B
:10121000118011801180EF2111800021254A117069
:101220001FE036210A0711804821214A11802A2116
:101230004FF0C042118000211D4A118011801180A1
:10124000EF2111802B214A0711800021184A1180BB
:101250001180012111803F2111800121154A117057
:1012600000BF00BF704730B5124C24786CB92A24F7
:101270004FF0C0452C8004120D4D2C800412A0EBC1
:1012800004242C808418641E16E03AE00008014013
:1012900000100240000C0140001001400014014009
:1012A00000180140001C014000200140040100A082
:1012B0000000026002000020C4F30F242C80841878
:1012C000641E85186D1E2D12A4EB0524AD4D2C80D7
:1012D0002B2465072C800C12AA4D2C800C12A1EB3C
:1012E00004242C80CC18641EC4F30F242C80CC184A
:1012F000641ECD186D1E2D12A4EB0524A14D2C806B
:1013000030E02B2465072C8004129E4D2C800412A3
:10131000A0EB04242C808418641EC4F30F242C80BA
:101320008418641E85186D1E2D12A4EB0524954D9E
:101330002C802A244FF0C0452C800C12914D2C801B
:101340000C12A1EB04242C80CC18641EC4F30F24CF
:101350002C80CC18641ECD186D1E2D12A4EB052414
:10136000884D2C802C24E5062C8030BD70B50446B9
:101370000D462B46224629462046FFF774FF2E20B5
:101380004FF0C0410880FFF713FF0646304670BD9E
:101390002C20C1060880704710B5CF204FF0C04107
:1013A000088000207749088081200880302008804C
:1013B000ED204FF0C041088064207249088003206E
:1013C00008801220088081200880E8204FF0C0416A
:1013D000088085206B4908801020088078200880CC
:1013E000CB20410708803920664908802C200880DE
:1013F000002008803420088002200880F7204FF069
:10140000C041088020205F490880EA204FF0C04199
:10141000088000205B4908800880B1204FF0C0415F
:1014200008800020574908801B200880B62001074B
:1014300008800A2053490880A2200880C020C105E6
:10144000088035204F490880C1204FF0C0410880F6
:1014500011204C490880C5204FF0C041088045202C
:10146000484908800880C7204FF0C0410880A2206A
:1014700044490880F2204FF0C041088000204149D3
:10148000088026200107088001203E490880E020CE
:101490004FF0C04108800F203A490880262008807C
:1014A000242008800B2008800E2008800920088056
:1014B00054200880A8200880462008800C2008803E
:1014C00017200880092008800F2008800720088046
:1014D00000200880E1204FF0C04108800020294909
:1014E0000880192008801B20088004200880102014
:1014F0000880072008802A2008804720088039209B
:10150000088003200880062008800880302008809A
:10151000382008800F2008803620010708806820C6
:10152000184908802A204FF0C04108800020154942
:1015300008800880012008803F2008802B20410778
:10154000088000200F49088008800880EF2008806C
:101550003A204FF0C041088055200A4908801120E8
:101560004FF0C04108804FF49660FEF724FF292019
:101570004FF0C04108800020FFF72FFE2C20C1064D
:10158000088010BD000002607047704770477546C4
:1015900000F02CF8AE4605006946534620F00700DF
:1015A000854618B020B5FEF785FFBDE820404FF016
:1015B00000064FF000074FF000084FF0000B21F03D
:1015C0000701AC46ACE8C009ACE8C009ACE8C0090A
:1015D000ACE8C0098D46704710B50446AFF30080F3
:1015E0002046BDE81040FEF7C8BD00000048704727
:1015F0000400002001491820ABBEFEE726000200CF
:101600007047000000000000000000000000000023
:101610000404040404040004000000140A0A000086
:10162000000000000000000014143F140A3F0A0AE2
:10163000000000041E1505060C14150F0400000020
:1016400012150D0A142C2A1200000000040A0A1EAA
:10165000151509360000000202010000000000001C
:1016600000000020100808080808081020000002E8
:101670000408080808080804020000000004150E09
:101680000E150400000000000404041F04040400FC
:101690000000000000000000000000020201000045
:1016A0000000001F0000000000000000000000001B
:1016B00000000002000000100808080404020202F2
:1016C000010000000E1111111111110E0000000097
:1016D000040604040404040E000000000E111108A6
:1016E0000402011F000000000E11100C1010110E5A
:1016F00000000000080C0A0A091E0818000000007B
:101700001F01010F1010110E000000000E09010F43
:101710001111110E000000001F0908040404040444
:10172000000000000E11110E1111110E000000003A
:101730000E1111111E10120E000000000000040016
:10174000000000040000000000000004000000048D
:10175000040000201008040204081020000000000B
:1017600000001F00001F00000000000204081020FD
:1017700010080402000000000E1111080404000407
:10178000000000000E111915151D011E00000000BB
:1017900004040C0A0A1E1233000000000F12120E7D
:1017A0001212120F000000001E1101010101110EA2
:1017B000000000000F1212121212120F000000009F
:1017C0001F120A0E0A02121F000000001F120A0E4A
:1017D0000A020207000000001C1201013911120C5C
:1017E000000000003312121E12121233000000001B
:1017F0001F0404040404041F000000003E0808083D
:10180000080808090700000037120A060A0A1237FA
:1018100000000000070202020202223F0000000056
:101820001B1B1B1B15151515000000003B1216167F
:101830001A1A1217000000000E1111111111110EC9
:10184000000000000F12120E02020207000000004A
:101850000E1111111117190E180000000F12120E9F
:101860000A121237000000001E1101060810110FA5
:10187000000000001F1504040404040E0000000012
:10188000331212121212120C000000003312120A4C
:101890000A0C0404000000001515150E0A0A0A0AB5
:1018A000000000001B0A0A04040A0A1B00000000D2
:1018B0001B0A0A040404040E000000001F090804A7
:1018C0000402121F0000001C0404040404040404A5
:1018D0001C00000202020404080808100000000EA8
:1018E00008080808080808080E0000040A0000009C
:1018F00000000000000000000000000000000000E8
:10190000003F000400000000000000000000000094
:101910000000000C121C123C000000000302020E2A
:101920001212120E000000000000001C1202021C25
:10193000000000001810101C1212123C00000000E1
:101940000000000C121E021C000000003804041EDF
:101950000404041E000000000000003C120C021EE3
:10196000221C00000302020E1212123700000000B7
:10197000040000060404040E000000000800000C2F
:1019800008080808080700000302023A0A0E123786
:1019900000000000070404040404041F0000000009
:1019A0000000000F15151515000000000000000FC5
:1019B00012121237000000000000000C1212120C6C
:1019C000000000000000000F1212120E02070000BB
:1019D0000000001C1212121C103800000000001B36
:1019E00006020207000000000000001E020C101E8C
:1019F000000000000004040E0404041800000000AD
:101A00000000001B1212123C000000000000003712
:101A1000120A0C040000000000000015150E0A0A4E
:101A2000000000000000001B0A040A1B0000000068
:101A300000000037120A0C04040300000000001E1E
:101A40000804041E00000018080808040808080814
:101A50001800080808080808080808080808000608
:101A6000040404080404040406000225180000000D
:101A70000000000000000000000000000000000066
:101A80000000000000000000183C3C3C1818180042
:101A900018180000000000666666240000000000C0
:101AA0000000000000000000006C6CFE6C6C6CFE1E
:101AB0006C6C0000000018187CC6C2C07C0686C68C
:101AC0007C181800000000000000C2C60C1830602E
:101AD000C686000000000000386C6C3876DCCCCC88
:101AE000CC760000000000303030600000000000C4
:101AF00000000000000000000C18303030303030A2
:101B0000180C00000000000030180C0C0C0C0C0C21
:101B10001830000000000000000000663CFF3C663A
:101B2000000000000000000000000018187E1818D7
:101B3000000000000000000000000000000000188D
:101B400018183000000000000000000000FE000037
:101B50000000000000000000000000000000000085
:101B60001818000000000000000002060C18306089
:101B7000C0800000000000007CC6C6CED6D6E6C6F7
:101B8000C67C0000000000001838781818181818D3
:101B9000187E0000000000007CC6060C183060C0F3
:101BA000C6FE0000000000007CC606063C060606D5
:101BB000C67C0000000000000C1C3C6CCCFE0C0C31
:101BC0000C1E000000000000FEC0C0C0FC0E060697
:101BD000C67C0000000000003860C0C0FCC6C6C65D
:101BE000C67C000000000000FEC606060C1830305F
:101BF00030300000000000007CC6C6C67CC6C6C6E9
:101C0000C67C0000000000007CC6C6C67E06060634
:101C10000C780000000000000000181800000018F8
:101C20001800000000000000000018180000001854
:101C3000183000000000000000060C18306030185A
:101C40000C0600000000000000000000FE0000FE86
:101C50000000000000000000006030180C060C18A6
:101C600030600000000000007CC6C60C1818180088
:101C70001818000000000000007CC6C6DEDEDEDCB6
:101C8000C07C00000000000010386CC6C6FEC6C64E
:101C9000C6C6000000000000FC6666667C666666DC
:101CA00066FC0000000000003C66C2C0C0C0C0C2AC
:101CB000663C000000000000F86C666666666666BA
:101CC0006CF8000000000000FE66626878686062E0
:101CD00066FE000000000000FE66626878686060D2
:101CE00060F00000000000003C66C2C0C0DEC6C656
:101CF000663A000000000000C6C6C6C6FEC6C6C6DC
:101D0000C6C60000000000003C1818181818181863
:101D1000183C0000000000001E0C0C0C0C0CCCCC7D
:101D2000CC78000000000000E6666C6C78786C6689
:101D300066E6000000000000F060606060606062C5
:101D400066FE000000000000C6EEFEFED6C6C6C657
:101D5000C6C6000000000000C6E6F6FEDECEC6C61F
:101D6000C6C6000000000000386CC6C6C6C6C6C69F
:101D70006C38000000000000FC6666667C606060F5
:101D800060F00000000000007CC6C6C6C6C6C6D60D
:101D9000DE7C0C0E00000000FC6666667C6C6666ED
:101DA00066E60000000000007CC6C660380C06C66F
:101DB000C67C0000000000007E7E5A181818181813
:101DC000183C000000000000C6C6C6C6C6C6C6C68F
:101DD000C67C000000000000C6C6C6C6C6C6C66CEB
:101DE0003810000000000000C6C6C6C6C6D6D6FE23
:101DF0006C6C000000000000C6C66C6C38386C6C5F
:101E0000C6C6000000000000666666663C1818182A
:101E1000183C000000000000FEC6860C183060C2AE
:101E2000C6FE0000000000003C3030303030303062
:101E3000303C0000000000000080C0E070381C0E44
:101E400006020000000000003C0C0C0C0C0C0C0CFA
:101E50000C3C0000000010386CC6000000000000C0
:101E60000000000000000000000000000000000072
:101E7000000000FF000030301800000000000000EB
:101E80000000000000000000000000780C7CCCCCBA
:101E9000CC76000000000000E06060786C6666664A
:101EA00066DC0000000000000000007CC6C0C0C06E
:101EB000C67C0000000000001C0C0C3C6CCCCCCCA0
:101EC000CC760000000000000000007CC6FEC0C010
:101ED000C67C000000000000386C6460F060606048
:101EE00060F000000000000000000076CCCCCCCCFC
:101EF000CC7C0CCC78000000E060606C7666666696
:101F000066E60000000000001818003818181818BD
:101F1000183C0000000000000606000E060606063B
:101F2000060666663C000000E06060666C78786CCF
:101F300066E6000000000000381818181818181875
:101F4000183C000000000000000000ECFED6D6D6D1
:101F5000D6D6000000000000000000DC6666666661
:101F600066660000000000000000007CC6C6C6C611
:101F7000C67C000000000000000000DC66666666AB
:101F8000667C6060F000000000000076CCCCCCCC19
:101F9000CC7C0C0C1E000000000000DC766260604F
:101FA00060F00000000000000000007CC660380CFB
:101FB000C67C000000000000103030FC30303030B3
:101FC000361C000000000000000000CCCCCCCCCCC3
:101FD000CC760000000000000000006666666666C1
:101FE0003C18000000000000000000C6C6C6D6D69F
:101FF000FE6C000000000000000000C66C3838389D
:102000006CC6000000000000000000C6C6C6C6C6C0
:10201000C67E060CF8000000000000FECC18306000
:10202000C6FE0000000000000E18181870181818DE
:10203000180E0000000000001818181800181818D2
:102040001818000000000000701818180E18181852
:10205000187000000000000076DC000000000000A6
:102060000000000000000000000010386CC6C6C66A
:10207000FE00000000000000982000080000002082
:1020800004000000280100089C2000080400002033
:0C20900064020000440100080000000091
:04000005080000ED02
:00000001FF
