:020000040800F2
:1000000068020020291100082D1100082F11000896
:1000100031110008331100083511000800000000FC
:100020000000000000000000000000003711000880
:1000300039110008000000003B1100083D110008C4
:100040003F1100083F1100083F1100083F11000850
:100050003F1100083F1100089F0700083F110008EA
:10006000C5070008EB070008110800083F11000849
:100070003F1100083F1100083F1100083F11000820
:100080003F1100083F1100083F1100083F11000810
:100090003F1100083F1100083F1100083F11000800
:1000A0003F1100083F1100083F1100083F110008F0
:1000B0003F1100083F1100083F1100083F110008E0
:1000C0003F1100083F1100083F1100083F110008D0
:1000D0003F110008950A00083F1100083F11000871
:1000E0003F1100083F1100083F11000800F002F81E
:1000F00000F03AF80AA090E8000C82448344AAF188
:100100000107DA4501D100F02FF8AFF2090EBAE885
:100110000F0013F0010F18BFFB1A43F0010318473B
:10012000981E0000B81E0000103A24BF78C878C19D
:10013000FAD8520724BF30C830C144BF04680C60ED
:10014000704700000023002400250026103A28BF35
:1001500078C1FBD8520728BF30C148BF0B60704739
:100160001FB51FBD10B510BD01F024F91146FFF7F2
:10017000F7FF00F0F3FF01F056F903B4FFF7F2FFC9
:1001800003BC00F077FC00000C48806940F01000D0
:100190000A4988614FF03330094908600846C06851
:1001A0004FF6FF7108430649C8607047C1B2044A60
:1001B0001161C1B2C9435161704700000010024093
:1001C00000100140BB48006840F00100B9490860D8
:1001D00008464068B8490840B64948600846006883
:1001E000B6490840B34908600846006820F48020FA
:1001F00008600846406820F4FE0048604FF41F0085
:10020000886070472DE9F041054600270026382D0B
:1002100015D006DC202D09D0282D0AD0302D17D17D
:100220000AE0402D0ED0482D12D10EE04FF40024EC
:1002300011E04FF440240EE04FF480140BE04FF433
:10024000A01408E04FF4C01405E04FF4E01402E0FD
:10025000FF20BDE8F08100BFFFF7B4FF95480068BC
:1002600020F48030934908600846006840F48030EC
:10027000086000BF8F48006800F40037761C6FF0FC
:100280007040864201D2002FF4D08A48006800F402
:10029000003000284DD08A48006840F0100088499E
:1002A00008600846006820F00300086008460068FF
:1002B00040F0020008607F48406843F6F0718843D0
:1002C0007C4948600846406840F4806048600846C1
:1002D000406820F4403048600846406840F4803070
:1002E00048600846406820F470104860084640683E
:1002F000204348600846006840F08070086000BFF6
:100300006C48006800F000700028F9D06948406827
:1003100020F00300674948600846406840F002004A
:10032000486000BF6348406800F00C000828F9D11D
:1003300003E0FFF747FFFF208BE7002089E7072254
:1003400022EA000109025F4A0A435F4B1A607047C4
:10035000F0B50346002000250F245B4E366806F4F6
:10036000E066C6F5E066300AC0F10405C44003FA51
:1003700005F001EA040630430001544EB05402F087
:100380001F070126BE405711BF0007F1E027C7F83D
:100390000061F0BD30B54821481EB0F1807F01D327
:1003A00001201CE0481E4FF0E022506150170F2240
:1003B000002808DA13071D0E434B0C3300F00F041E
:1003C000241F1D5503E013071C0E404B1C5400BF97
:1003D00000204FF0E022906107201061002038B922
:1003E0004FF0E020006920F003004FF0E0210861A9
:1003F00030BD00EBC0020123C3EBC2024FF0E0238B
:100400005A6100229A611A46126942F001021A6189
:1004100000BF4FF0E022116901F48032002AF8D0C9
:100420004FF0E022126922F001024FF0E0231A613E
:100430007047274A4FF0E0235A6100229A611A461A
:10044000126942F001021A6100BF4FF0E022116907
:1004500001F480320AB1421E90B20028F5D14FF06B
:10046000E022126922F001024FF0E0231A61704786
:1004700000EB800290B2174A4FF0E0235A6100224D
:100480009A611A46126942F001021A6100BF4FF0E8
:10049000E022116901F480320AB1421E90B20028B4
:1004A000F5D14FF0E022126922F001024FF0E02373
:1004B0001A617047001002400000FFF0FFFFF6FED7
:1004C000002002400000FA050CED00E000E400E02E
:1004D0003F190100FFB9DB00F648806940F0400099
:1004E000F4498861F4480068F4490840F24908601A
:1004F00008460068F2490843EF490860EE480C30AE
:10050000006840F01C00EC490C310860E948806943
:1005100040F00400E7498861EA48006820F00F00D5
:10052000E84908600846006840F008000860E548AF
:100530000C30006820F00100E2490C31086070477F
:1005400010B5044604F0010028B1DA48806940F093
:100550000400D849886104F00E0028B1D5488069AC
:1005600040F04000D3498861D248806940F00100E2
:10057000D049886104F0010090B1D248006820F0B1
:100580000F00D04908600846006840F00800086085
:10059000CC480C30006820F00100CA490C310860DA
:1005A00004F00E00E8B304F0040090B1C248006803
:1005B00020F47060C04908600846006840F400609C
:1005C0000860BD480C30006840F00400BA490C31A6
:1005D000086004F0020090B1B748006820F4704051
:1005E000B54908600846006840F400400860B24819
:1005F0000C30006840F00800AF490C31086004F08E
:10060000080070B1AC48006820F47020AA49086066
:100610000846006840F400200860A7480C300068D5
:1006200000E004E040F01000A3490C31086004F041
:10063000010020B1062200210846FFF789FE04F0E0
:10064000040020B1082200210846FFF781FE04F0D3
:10065000020020B1092200210846FFF779FE04F0CC
:10066000080020B10A2200210846FFF771FE04F0BD
:10067000010040B19448806820F00F0092498860E2
:1006800008468068886004F0040050B18E48806895
:1006900020F470608C4988600846806840F480606F
:1006A000886004F0020050B18748806820F47040F0
:1006B000854988600846806840F48040886004F07E
:1006C000080050B18048C06820F00F017E48C1602A
:1006D000C06840F004017C48C16004F0010098B19A
:1006E0007A48006840F001007849086077480C308B
:1006F000006820F0010075490C310860081F00688F
:1007000040F00100091F086004F00E00F0B304F08F
:10071000040098B16D48006840F004006B4908601F
:100720006A480830006820F0040068490831086011
:10073000081D006840F00400091D086004F0020074
:1007400098B16248006840F00800604908605F485E
:100750000830006820F008005C4908310860081D76
:10076000006840F00800091D086004F0080068B146
:100770005648006840F0100054490860534808305B
:10078000006820F010005149083100E006E00860E0
:10079000081D006840F01000091D086010BD10B56C
:1007A0004A481430006800F0010010B148A000F081
:1007B000C3FD46481430006840F00100434914313D
:1007C000086010BD10B541481430006800F0040006
:1007D00010B144A000F0B0FD3C481430006840F077
:1007E00004003A491431086010BD10B53748143080
:1007F000006800F0080010B140A000F09DFD3348F3
:100800001430006840F0080030491431086010BD11
:1008100010B52E481430006800F0100010B13DA053
:1008200000F08AFD29481430006840F01000274984
:100830001431086010BD002001E0411C88B245F66B
:10084000FF718842F9DB704770B5002400251D4810
:100850000830006800F0010090B9174808300068BF
:10086000C0F3800060B1144808300068C0F3C000D5
:1008700030B1114808300068C0F3001000287AD168
:10088000FFF7D9FF0F480830006800F0010008B1F9
:10089000012454E0084808300068C0F3800008B91B
:1008A00004244CE0044808300068C0F3C000E8BBF2
:1008B000022444E00010024000180140FF00F0FF55
:1008C00000880800000801400000014000040140C9
:1008D000204B45595F5550B7A2C9FAD6D0B6CFA321
:1008E000A10A0000204B45595F4C454654B7A2C9A8
:1008F000FAD6D0B6CFA3A10A00000000204B45597C
:100900005F444F574EB7A2C9FAD6D0B6CFA3A10ABB
:1009100000000000204B45595F5249474854B7A298
:10092000C9FAD6D0B6CFA3A10A000000FFE713484A
:100930000068C0F3001008B9082400E00024D4B116
:1009400003E0FFF778FF681CC5B20D48006800F0AF
:10095000010070B909480068C0F3800048B1074839
:100960000068C0F3C00020B104480068C0F3001064
:1009700008B9962DE5DB204670BD0000081801403F
:100980000808014010B5252200210846FFF7E0FCC9
:100990004B48008840F010004949088010BD2DE9FF
:1009A000F0470546280100F08FFE80464146454845
:1009B00000F0A8FD0646304600F066FE84B22046F0
:1009C00000F09AFE8246314600F076FF81464FF0F5
:1009D000834100F0A5FE804600F056FE87B24FF638
:1009E000FF7000EA0414E01984B23748806944F2C9
:1009F00004010843344988613448006820F47F606A
:100A0000324908600846006840F40B6008602F48CF
:100A10000830006840F480602C49083108602A489A
:100A2000C06840F480402849C8600846C06820F487
:100A30008040C8602248001F0480001D008842F2E8
:100A40000C0108431E490880FFF79CFFBDE8F087B2
:100A50000CE001781A4A083A118000BF18490C3995
:100A6000098801F040010029F8D0401C01780029D4
:100A7000EFD17047014600BF704700BF104A0C3AE3
:100A8000128802F04002002AF8D0C2B20C4B083B98
:100A90001A8070470A490C39098801F0200171B1A8
:100AA000074908390988C8B205490839088000BFD4
:100AB00003490C39098801F040010029F8D070473A
:100AC0000C3801404054894C001002400408014099
:100AD00070B504460D4616462B462246294620464A
:100AE00000F0A8FA304600F053F970BD2DE9F04748
:100AF00004460D4616461F46DDF82080B44201DC50
:100B0000BD4201DDBDE8F0873B463246294620461E
:100B100000F090FA301B401C84B2781B401C85B258
:100B20000BE0A94602E0404600F032F9B9F10000BE
:100B3000A9F101011FFA81F9F5D1201EA4F10101EB
:100B40008CB2EED100BFDDE72DE9F04104460D4641
:100B5000174605F1010C1FFA8CF304F1010C1FFA82
:100B60008CF2A5F1010C1FFA8CF1A4F1010C1FFA13
:100B70008CF000F05FFA002604E0384600F008F937
:100B8000701CC6B2092EF8DB211D8AB2211F88B263
:100B90002B46294600F04EFA002604E0384600F0C5
:100BA000F7F8701CC6B2092EF8DB281D83B2281F87
:100BB00081B22246204600F03DFA002604E0384685
:100BC00000F0E6F8701CC6B2092EF8DBBDE8F08133
:100BD0002DE9F05F04460E46154698463AE028781F
:100BE000203800F0FF0A06F10F0083B2E01D82B248
:100BF0003146204600F01EFA00271FE0184800EB9F
:100C00000A1010F807B04FF0000912E00BF0800056
:100C1000802803D1404600F0BBF802E00A9800F0BB
:100C2000B7F84FF6FF7000EA4B0B09F1010000F036
:100C3000FF09B9F1080FE9DB781CC7B2102FDDDB23
:100C40006D1C04F1080084B2E92C03DD002406F1D8
:100C5000100086B228780028C1D1BDE8F09F0000BE
:100C6000B6190008FE48806940F4B070FC498861FC
:100C7000FC48006820F00F00FA4908600846006848
:100C800040F00B0008600846406820F4702048607F
:100C90000846406840F430204860F348006800F09F
:100CA000FF20F14908600846006840F0BB1008606A
:100CB000081D00680020091D08600846006840F013
:100CC000BB300860E948006820F07040E7490860E0
:100CD0000846006840F030400860081D00680020A9
:100CE000091D08600846006840F0BB300860704786
:100CF000DB48406940F48070D949486100204FF0DA
:100D000020418861C861DA4908604FF0204080695D
:100D100040F480504FF0204188610846806940F4DB
:100D2000804088610846806940F01000886108466C
:100D3000C069C8610846C06940F00100C861084642
:100D4000C06940F47060C861C9480068C1F81C01FE
:100D5000C7480068C1F81C010846D0F81C0140F4DF
:100D60004070C1F81C010846806940F001008861AC
:100D700070474FF6FF7101EA0021BE4A11807047AB
:100D80004FF6FF7101EA0021BA4A921C11807047A8
:100D900000F47F41B74A921C11804FF6FF7101EABF
:100DA00000211180704700B5FFF75CFFFFF7A0FF3F
:100DB000CB20FFF7DEFF3920FFF7E2FF2C20FFF703
:100DC000DFFF0020FFF7DCFF3420FFF7D9FF022010
:100DD000FFF7D6FFCF20FFF7CCFF0020FFF7D0FFB3
:100DE000A220FFF7CDFFF020FFF7CAFFE820FFF7B2
:100DF000C0FF8420FFF7C4FF1120FFF7C1FF7A2056
:100E0000FFF7BEFFEA20FFF7B4FF6620FFF7B8FF49
:100E10000020FFF7B5FFED20FFF7ABFF5520FFF7F0
:100E2000AFFF0120FFF7ACFF2320FFF7A9FF012050
:100E3000FFF7A6FFF720FFF79CFF2020FFF7A0FF9A
:100E4000C020FFF796FF1C20FFF79AFFC120FFF795
:100E500090FF1320FFF794FFC520FFF78AFF2320A0
:100E6000FFF78EFF3F20FFF78BFFC720FFF781FFC3
:100E7000A520FFF785FFB120FFF77BFF0020FFF7DC
:100E80007FFF1720FFF77CFF3A20FFF772FF552006
:100E9000FFF776FFB620FFF76CFF0A20FFF770FF21
:100EA000A220FFF76DFF2720FFF76AFF0020FFF762
:100EB00067FF3620FFF75DFF0820FFF761FFF22094
:100EC000FFF757FF0220FFF75BFF2620FFF751FFD8
:100ED0000120FFF755FFE020FFF74BFF0F20FFF742
:100EE0004FFF1420FFF74CFF1320FFF749FF0C20A2
:100EF000FFF746FF0E20FFF743FF0520FFF740FFF7
:100F00004520FFF73DFF8520FFF73AFF3620FFF72A
:100F100037FF0920FFF734FF1420FFF731FF0520CA
:100F2000FFF72EFF0920FFF72BFF0320FFF728FF15
:100F30000020FFF725FFE120FFF71BFF0020FFF750
:100F40001FFF2420FFF71CFF2620FFF719FF0320B7
:100F5000FFF716FF0F20FFF713FF0420FFF710FF26
:100F60003F20FFF70DFF1420FFF70AFF5220FFF785
:100F700007FF0420FFF704FF1020FFF701FF0E20FA
:100F8000FFF7FEFE3820FFF7FBFE3920FFF7F8FEE3
:100F90000F20FFF7F5FE2A20FFF7EBFE0020FFF7FA
:100FA000EFFE0020FFF7ECFE0020FFF7E9FEEF2048
:100FB000FFF7E6FE2B20FFF7DCFE0020FFF7E0FE48
:100FC0000020FFF7DDFE0120FFF7DAFE3F20FFF7EC
:100FD000D7FE1120FFF7CDFE4CF2503301E0581E32
:100FE00083B2002BFBDC4CF2503301E0581E83B27D
:100FF000002BFBDC4CF2503301E0581E83B2002B77
:10100000FBDC4CF2503301E0581E83B2002BFBDCBA
:101010004CF2503301E0581E83B2002BFBDC4CF243
:10102000503301E0581E83B2002BFBDC2920FFF770
:10103000A0FE00BDF0B504460D4616462A20FFF777
:1010400098FE2746E11704EB1161C1F30F20FFF76B
:1010500097FEE11704EB11610912A4EB01210BE0EB
:10106000001002400020014000140140001801401F
:101070001C0100A0FE07006C88B2FFF781FE374616
:10108000F11706EB1161C1F30F20FFF779FEF1179D
:1010900006EB11610912A6EB012188B2FFF770FE81
:1010A0002B20FFF766FE2F46E91705EB1161C1F310
:1010B0000F20FFF765FEE91705EB11610912A5EB9B
:1010C000012188B2FFF75CFE1F46D91703EB1161BF
:1010D000C1F30F20FFF754FE1F46D91703EB116130
:1010E0000912A3EB012188B2FFF74AFE2C20FFF77B
:1010F00040FEF0BD70B5064640F23F13EF220021DE
:101100000846FFF797FF00240BE0002504E0304677
:10111000FFF73EFE681C85B2B5F5A07FF7DB601CCB
:1011200084B2F02CF1DB70BD08480047FEE7FEE713
:10113000FEE7FEE7FEE7FEE7FEE7FEE7FEE7FEE787
:1011400003480449024A044B70470000ED000008C0
:1011500068000020680200206800002008B5002513
:1011600005244820FFF74EF8FFF71DFEFFF70CF8A7
:10117000CAE0761CB6F5801FFAD30026FE2D01D1F9
:10118000FF2500E0FE252846FFF710F8601CC4B2DA
:10119000152C00D1002424B1062C4DD00D2C7DD16E
:1011A0005FE04FF6FF703123EF22002100900846E8
:1011B000FFF79CFC00206323EF2232210090FFF711
:1011C00095FC1F209523EF22642100900020FFF75B
:1011D0008DFC4FF47840C723EF2296210090002029
:1011E000FFF784FC4FF61F00F923EF22C82100907F
:1011F0000020FFF77BFC4FF4FC6040F22B13EF2242
:10120000FA2100900020FFF771FC47F6FF7040F2D2
:101210005D13EF224FF4967100900020FFF766FCFB
:101220004FF6E07040F28F13EF224FF4AF71009051
:101230000020FFF75BFC66E00020FFF75BFF00206B
:101240004FF4784331A2014600905A20FFF7C0FCCA
:1012500000204FF478432FA210210090FFF7B8FC34
:1012600051E04FF6FF7040F23F131D220021009025
:101270000846FFF73BFC002040F23F133B220146AB
:1012800000901E20FFF732FC1F2040F23F1359222E
:10129000002100903C20FFF729FC00E032E04FF4F1
:1012A000784040F23F137722002100905A20FFF748
:1012B0001DFC4FF61F0040F23F13952200210090C5
:1012C0007820FFF713FC4FF4FC6040F23F13B32289
:1012D000002100909620FFF709FC47F6FF7040F2CE
:1012E0003F13D12200210090B420FFF7FFFB4FF6FF
:1012F000E07040F23F13EF2200210090D220FFF770
:10130000F5FB00E000BF00BF33E70000504552434B
:1013100048494E0077656C636F6D6520746F20746B
:10132000686520776F726C64206F662053544D336C
:1013300032210000704700000FB4044910B503AA21
:10134000029800F009F810BC5DF814FB00000020C2
:101350007047704770477047074B70B50D467B4428
:1013600000F011F80446284600F020F810B14FF0C4
:10137000FF3070BD204670BD19F7FFFF01694A1CA0
:1013800002610878704700B58FB0CDE901310021C6
:10139000059105497944CDE903101146684600F0EE
:1013A0002EF80FB000BD0000E5FFFFFF007B00F04E
:1013B00080007047754600F03FF8AE46050069466C
:1013C000534620F00700854618B020B5FFF7B8FE59
:1013D000BDE820404FF000064FF000074FF0000836
:1013E0004FF0000B21F00701AC46ACE8C009ACE8B7
:1013F000C009ACE8C009ACE8C0098D4670472DE9CA
:10140000F04106460024D6E90170F5688046304672
:1014100003E04146B847641C3046A8470028F8D18D
:101420002046BDE8F08110B50446AFF300802046A9
:10143000BDE81040FEF7A1BE004870470400002040
:1014400090EA010F48BF81F0004100F14682421A44
:101450003CBF801A89184FEAD0524FF07F4C1CEAEB
:10146000410FA2EBD15318BF9CEA026F00F03B8002
:101470004FF0004C4CEA00204CEA012121FA03FC19
:1014800010EB0C0C1ED202F1FF325FEA1C2040EB85
:10149000C25038BF70471CF07F0F4FEA400C18BF96
:1014A000BCF17F4F38BF7047C3F12003994008BF9C
:1014B00020F00100BCF17F4F38BF7047A0F1C04061
:1014C00000F0F5B94FEA3C00000A40EBC25028BFDB
:1014D0001CF0FF0F4FEA400CE6D018BFBCF17F4F65
:1014E00038BF7047EAE79CEA026F05D010EA5C0F4C
:1014F00008BF00F00040704710B500F092F900BF3F
:1015000064FBBE3E4FF47F0C1CEAD0121EBF1CEAE7
:10151000D11392EA0C0F93EA0C0F00F0858090EA49
:10152000010F48BF42F4807240F4000C41F4000007
:101530002CF07F4120F07F4000B58142A2EB0302F6
:101540000FF2081CACEB504EC0F100009EF800E01A
:101550004FEA4E0E00FB0EFC38BF49004FEA2C1C30
:1015600002F5FA020CFB0EF34FEACE1E4FEA112CE5
:101570004FEAC1210EEB635E42EB22420EFB0CFCF4
:101580004FEA1C5300FB03114FEA112C4FEA0131C3
:101590000EFB0CFC4FEADC4C00FB0C11C14228BFD7
:1015A00009184CEB03335DF804EB10EB410143EBFE
:1015B000C250B2F57C0F38BF704729D512F0F00F3A
:1015C0001CBF00F1C04000F00040704700818283E2
:1015D0008485868788898B8C8D8E8F919293959642
:1015E00097999A9C9D9FA0A2A3A5A7A8AAACAEB0CC
:1015F000B2B3B5B7B9BCBEC0C2C5C7C9CCCED1D4D1
:10160000D7D9DCDFE2E6E9ECF0F3F7FAFE00000000
:101610004FEA400C0CF1807CBCF17E4F28BF704734
:10162000B0F1C04000F043B990EA010F0CEAD113C9
:1016300048BF42F48072624538BF634507D213F455
:101640007F0F16D080EA010000F00040704710B50F
:1016500000F0E7F8097EFC3E00F005B880EA0100E2
:1016600000F00040704780EA010000F0004000F008
:101670001EB912F47F0F04BF0248704780EA0100D0
:1016800000F015B90000C07FC10DD1F19E0206DB4C
:101690004FEA002343F0004323FA02F07047004270
:1016A00007D54FEA4001B1F1FE4F02D24FF00000E2
:1016B000704710B500F0B5F84992248000207047BB
:1016C0006FEA20007047000010F0004148BF404220
:1016D000B0FA80F310FA03F2C3F19D030BD051EA84
:1016E000C35101EB1220530638BF704700F10100CF
:1016F00008BF20F001007047B0FA80F310FA03F23F
:10170000C3F19D030AD0D90501EB1220530638BF5F
:10171000704700F1010008BF20F001007047000091
:101720004FF47F0C1CEAD0121EBF1CEAD11392EAC0
:101730000C0F93EA0C0F00F0478090EA010F48BFAE
:1017400042F480724FF0004C4CEA00204CEA012138
:1017500002EB0302A0FB0113A2F50002002918BF4F
:1017600043F001035B0028BF4FEA330342EB224200
:101770005FEA132C4CEBC2502EBFBCEB436FB2F5AB
:101780007C0F70474FEA036CBCF1004F08BF20F09C
:101790000100B2F57C0F38BF70470BD582F0FF0215
:1017A00012F5803FC8BF704700F1C040D8BF00F0BD
:1017B0000040704700F5000C5FEA4C0C48BF7047D2
:1017C000B0F1C04000F073B890EA010F0CEAD113F9
:1017D00048BF42F48072624538BF634504D280EA54
:1017E000010000F00040704710B500F01AF800BF8B
:1017F0008900013E00F007B800F009B85FEA410C2B
:101800005FEA1C6C08D080EA010000F050B85FEA83
:10181000400C5FEA1C6CF6D14FF00040A0F5800050
:1018200070470EF1020E2EF0030E5EF8044B2442B8
:1018300004D44FEA4102B2F17F4F11D84FEA40037E
:10184000B3F17F4F0CD80ED14FEAD07CB2F17F4F6D
:101850000CEB4C0C0CF1020C08BF4CEBD17C04E0FF
:101860004FF0080C01E04FEAD17C0CEB4C0324FA5A
:1018700003F404F00704B4F1040C06D20EEB840C5C
:10188000BDE810404CF0010C6047DFE80CF00708A1
:1018900002024FF00040A0F5800010BD0846420053
:1018A00018BFD2F1807288BF00F0004010BDFF2148
:1018B00041EAD050C005704780F0004090EA010F27
:1018C0007FF5C5AD81F0004100F007B890EA010F47
:1018D00048BF81F000413FF5BAAD421A04D882F00A
:1018E0000042A0EB020011444FEAD0524FF07F4C6F
:1018F0001CEA410FA2EBD15318BF9CEA026F4AD0F9
:101900004FF0004C4CEA00204CEA012121FA03FC84
:10191000B0EB0C0C0FD412F0FE0F36D05FEA4C0087
:101920001DD5001240EBC25038BF70471CF03F0F6E
:1019300018BF70470BE0A2F101025FEA1C2040EBE8
:10194000C25038BF70471CF07F0F18BF7047C3F1FB
:101950002003994014BF401E20F00100704780080A
:101960004FEA122308BF7047B0FA80FCA2EB0C02CA
:10197000CCF1280C60FA0CF093EA122F04BF00EBB4
:10198000C25070474FEAC3707047130A5FEADC1019
:1019900008BF7047F6E79CEA026F04D010EA5C0FBC
:1019A00008BF0020704710B5FFF73BFF40DFF63E51
:1019B00081F00040704700000000000000000000BF
:1019C00000000000000000000010101010101010A7
:1019D0000000181800000012362448000000000023
:1019E000000000000000000000242424FE484848B5
:1019F000FE48484800000000103854545030181475
:101A000014545438101000000044A4A8A8A8541A74
:101A10002A2A2A44000000000030484848506EA49A
:101A200094888976000000606020C00000000000FB
:101A30000000000000000002040808101010101040
:101A400010080804020000402010100808080808C8
:101A5000081010204000000000001010D63838D6C2
:101A60001010000000000000000010101010FE1008
:101A70001010100000000000000000000000000036
:101A80000000606020C000000000000000007F0037
:101A90000000000000000000000000000000000046
:101AA0000000606000000000010202040408081049
:101AB00010202040400000000018244242424242D0
:101AC0004242241800000000001070101010101086
:101AD0001010107C00000000003C42424204040848
:101AE0001020427E00000000003C42420418040224
:101AF000024244380000000000040C142424444432
:101B00007E04041E00000000007E40404058640235
:101B10000242443800000000001C24404058644247
:101B20004242241800000000007E444408081010BF
:101B30001010101000000000003C42424224182403
:101B40004242423C00000000001824424242261A51
:101B500002022438000000000000000018180000F5
:101B60000000181800000000000000000010000035
:101B70000000001010200000000204081020402087
:101B8000100804020000000000000000FE00000039
:101B9000FE000000000000000040201008040204C5
:101BA0000810204000000000003C4242620204088D
:101BB00008001818000000000038445AAAAAAAAA6F
:101BC000B442443800000000001010182828243CBB
:101BD000444242E70000000000F844444478444294
:101BE000424244F800000000003E42428080808073
:101BF000804244380000000000F844424242424221
:101C0000424244F80000000000FC4248487848483E
:101C1000404242FC0000000000FC4248487848482E
:101C2000404040E000000000003C44448080808E42
:101C3000844444380000000000E7424242427E42B1
:101C4000424242E700000000007C1010101010100B
:101C50001010107C00000000003E0808080808086A
:101C60000808080888F0000000EE4448507050480A
:101C7000484444EE0000000000E040404040404046
:101C8000404042FE0000000000EE6C6C6C6C54544E
:101C9000545454D60000000000C7626252524A4AAF
:101CA0004A4646E200000000003844828282828276
:101CB000828244380000000000FC424242427C40E4
:101CC000404040E00000000000384482828282826E
:101CD000B2CA4C380600000000FC4242427C484830
:101CE000444442E300000000003E42424020180409
:101CF0000242427C0000000000FE92101010101002
:101D0000101010380000000000E7424242424242F8
:101D10004242423C0000000000E7424244242428A2
:101D2000281810100000000000D692929292AAAAE1
:101D30006C4444440000000000E7422424181818B2
:101D4000242442E70000000000EE4444282810103C
:101D50001010103800000000007E840408081020D5
:101D6000204242FC0000001E101010101010101035
:101D7000101010101E00000040402020101010080D
:101D80000804040402020078080808080808080883
:101D9000080808087800001C22000000000000006D
:101DA0000000000000000000000000000000000033
:101DB0000000000000FF0000000000000000000024
:101DC0000000606020C0000000000000003C421ED7
:101DD0002242423F0000000000C0404040586442A0
:101DE000424264580000000000000000001C224035
:101DF0004040221C0000000000060202021E224297
:101E00004242261B0000000000000000003C427E11
:101E10004040423C00000000000F1110107E1010E6
:101E20001010107C0000000000000000003E444440
:101E300038403C42423C000000C04040405C6242AE
:101E4000424242E7000000000030300000701010F5
:101E50001010107C00000000000C0C00001C04049A
:101E6000040404044478000000C04040404E485040
:101E7000684844EE000000000070101010101010B0
:101E80001010107C000000000000000000FE494916
:101E9000494949ED000000000000000000DC6242FA
:101EA000424242E70000000000000000003C4242C5
:101EB0004242423C000000000000000000D86442A2
:101EC0004242447840E0000000000000001E224230
:101ED0004242221E020700000000000000EE3220F5
:101EE000202020F80000000000000000003E4240DA
:101EF0003C02427C0000000000000010107C10102A
:101F00001010100C000000000000000000C642424B
:101F10004242463B000000000000000000E742246F
:101F200024281010000000000000000000D792924A
:101F3000AAAA44440000000000000000006E24181B
:101F400018182476000000000000000000E742247A
:101F50002428181010E0000000000000007E440853
:101F60001010227E000000000000000000000000B1
:101F70000000000000000000000000000000000061
:101F80000000000000000000000000000000000051
:101F90000000000000000000000000000000000041
:101FA0000000000000000000000000000000000031
:101FB0000000000000000000D81F00080000002002
:101FC0000400000028010008DC1F000804000020B5
:0C1FD00064020000440100080000000052
:04000005080000ED02
:00000001FF
